:020000040800F2
:10000000E0C30020E5020008C18D000805040008D7
:10001000BD8D00087525000841A7000800000000FC
:10002000000000000000000000000000F7020008CF
:10003000D1270008000000005303000859040008FD
:10004000FF020008FF020008FF020008FF0200088C
:10005000FF020008FF020008D5270008FF02000881
:10006000FF020008FF020008FF020008FF0200086C
:10007000FF020008FF020008FF020008FF0200085C
:100080007925000891250008FF0200080000000003
:10009000000000000000000000000000FF02000857
:1000A000FF02000865970008FF020008FF02000831
:1000B000FF0200087D970008FF020008B1710008E8
:1000C00085710008FF020008FF020008318E000859
:1000D000FF0200082DA6000889A600080000000005
:1000E000FF020008FF020008FF02000800000000F5
:1000F000000000000000000000000000FF020008F7
:1001000000000000FF020008FF020008FF020008D4
:1001100000000000000000000000000000000000DF
:10012000A9250008C1250008D9250008F1250008E7
:10013000FF020008000000000000000000000000B6
:10014000000000000000000000000000FF020008A6
:10015000FF0200080926000821260008E5A600087D
:10016000FF020008FF02000800000000000000007D
:10017000000000000000000000000000000000007F
:1001800000000000FF020008000000000000000066
:10019000FF02000800F002F800F094F80AA090E8CE
:1001A000000C82448344AAF10107DA4501D100F032
:1001B00089F8AFF2090EBAE80F0013F0010F18BF6B
:1001C000FB1A43F001031847AC770100CC7701001C
:1001D000103A24BF78C878C1FAD8520724BF30C873
:1001E00030C144BF04680C60704700000023002445
:1001F00000250026103A28BF78C1FBD8520728BF37
:1002000030C148BF0B6070476E2900F0158470291B
:1002100000F05785662915F04A82652915F0478256
:10022000672915F04482612915F0438203681B0A8F
:1002300028BF41F08001692900F0C283642900F0E1
:10024000BF83752900F0BC836F2900F0E58478290D
:1002500000F02385E92900F07F84E42900F07C8404
:10026000F52900F07984EF2900F0E284F82900F004
:1002700022850368DB0928BF41F08001632901F072
:10028000C982732901F0CE82E32901F0D982F329D2
:1002900001F0DE82002070471FB515F0F3F901F080
:1002A00093FB04000020002114F0BEFD401C6060A0
:1002B0000020002114F0A2FDE06000F0FDFA1FBD57
:1002C00010B510BD01F05BFB1146FFF7E5FF02F032
:1002D0004BF901F0B9FE03B4FFF7F2FF03BC01F0E4
:1002E00011FF00000948804709480047FEE7FEE784
:1002F000FEE7FEE7FEE7FEE7FEE7FEE7FEE7FEE7D6
:1003000004480549054A064B70470000519700080C
:1003100095010008E0BD0020E0C30020E0BF002000
:10032000E0BF0020EFF3108072B6704780F31088B2
:100330007047424A1368012B04D04FF00103136049
:100340003F4A10603F4A11603F484FF080510160C2
:100350007047EFF3108272B63848016851B34FF01E
:10036000000101603648016891B1EFF309811EF088
:10037000100F08BF21ED108B21E9F00F4FF00004A2
:100380001EF0100F08BF012441F8044D0068016001
:100390002C490968096808C9B1E8F00F002B18BF9B
:1003A000B1EC108B81F309884EF0100E002B18BFB2
:1003B0002EF0100E82F310884EF0040E7047214983
:1003C0000860EFF3148222F0040282F314881C49BF
:1003D0004FF00000086019494FF0010008601B4809
:1003E0001B49D0F8002041EA0201016016484FF095
:1003F0008051016017480068006880F3088861B682
:1004000062B670471EF0040F0CBFEFF30880EFF3E5
:10041000098020E9F00F40F804ED40F804ED1EF0EB
:10042000040F0CBF80F3088880F3098800B50FF033
:10043000E1FC5DF804EB4EF0040E704778B3002049
:1004400028AE002034AE002004ED00E020ED00E0F6
:100450000000FFFF08ED00E030B410B5034880470E
:1004600030BCAE4630BC02480047000019420108CB
:100470005995000800BF704753EA020C00F06980EC
:100480002DE9F04B4FF00006002B1FBFB3FA83F5A8
:1004900003FA05F424FA05F65E4012BF1643B2FAD9
:1004A00082F502FA05F4C5F120051EBF22FA05FC0B
:1004B00044EA0C04203556EA044C4FEA144418BFB1
:1004C000641C4FF000084FF00009904271EB030CE0
:1004D00039D3002919BFB1FA81F701FA07F6B0FA4A
:1004E00080F700FA07F6C7F120071EBF20FA07FCC5
:1004F00046EA0C062037B6FBF4FCA7EB0507103FD5
:1005000007F01F0BCBF120062CFA06F60CFA0BFBBA
:1005100044BFB3460026202FA4BF5E464FF0000B19
:100520005BEA060C08BF4FF0010B19EB0B0948EB17
:100530000608ABFB027C06FB02CC0BFB03CCC01B0A
:1005400071EB0C01C1E70B46024641464846BDE847
:10055000F08B13B5084318BF4FF0FF300146AFF3DF
:100560000080BDE81C4070471CB50C46064B7B4420
:1005700069460090204600F078FA0446002069465B
:1005800000F086FA20461CBD1F05000070B5064627
:1005900000F0A4F90468054630460A22002100F064
:1005A000B7FC2C6070BD40EA0103024630B59B07E2
:1005B00010D14FF0013400E008C208C91D1B9D4353
:1005C00015EAC41FF8D013F0FF0102F8011B0DD08B
:1005D0001B0AF8E711F8013B002B02F8013B05D09C
:1005E00011F8013B002B02F8013BF3D130BD10B5EF
:1005F000431C02E010F8011B71B18107FAD14FF0E2
:10060000013202C88C1A8C4314EAC211F9D0C01A04
:100610000A0603D0C01E10BDC01A10BD0A0401D0C6
:10062000801E10BD0902FCD0401E10BD40EA01032F
:1006300070B59B072ED14FF00136042A2AD308C883
:1006400010C99D1B9D43121F15EAC61517D0D8B2BD
:10065000E1B2401A50EA056110D198B2A1B2401A35
:1006600050EA05410AD123F07F4024F07F41401A2F
:1006700050EA052102D1180EA0EB146070BDA34210
:10068000DBD018BA21BA884201D9012070BD4FF0E1
:10069000FF3070BD0AB9002070BD10F8013B11F8A1
:1006A000014B63B1A3420AD1521E08D010F8013B9E
:1006B00011F8014B1BB1A34201D1521EEDD1181B01
:1006C00070BD421E12F8013F002BFBD111F8013B17
:1006D000002B02F8013BF9D17047032A40F2308029
:1006E00010F0030C00F0158011F8013BBCF1020F73
:1006F000624498BF11F801CB00F8013B38BF11F8F4
:10070000013BA2F1040298BF00F801CB38BF00F80A
:10071000013B11F0030300F02580083AC0F0088087
:1007200051F8043B083A51F804CBA0E80810F5E76B
:10073000121D5CBF51F8043B40F8043BAFF300804E
:10074000D20724BF11F8013B11F801CB48BF11F8C3
:10075000012B24BF00F8013B00F801CB48BF00F893
:10076000012B704710B5203AC0F00B80B1E818504B
:10077000A0E81850B1E81850A0E81850203ABFF48B
:10078000F5AF5FEA027C24BFB1E81850A0E818502A
:1007900044BF18C918C0BDE810405FEA827C24BF7E
:1007A00051F8043B40F8043B08BF7047D20728BF0C
:1007B00031F8023B48BF11F8012B28BF20F8023B5B
:1007C00048BF00F8012B70474FF000020429C0F029
:1007D000128010F0030C00F01B80CCF1040CBCF173
:1007E000020F18BF00F8012BA8BF20F8022BA1EBC5
:1007F0000C0100F00DB85FEAC17C24BF00F8012BAA
:1008000000F8012B48BF00F8012B70474FF00002A1
:1008100000B5134694469646203922BFA0E80C50F6
:10082000A0E80C50B1F12001BFF4F7AF090728BFD1
:10083000A0E80C5048BF0CC05DF804EB890028BF4D
:1008400040F8042B08BF704748BF20F8022B11F076
:10085000804F18BF00F8012B704710B5044610F008
:10086000030F08BF11F0030F40F015804FF0013E59
:10087000121FC0F20E8051F8043BA3EB0E0C2CEAC1
:10088000030C1CEACE1C08BF40F8043BF0D0A1F1D9
:10089000040102F10402521E08DB11F8013B00F8CA
:1008A000013B002BF7D11146FFF78EFF204610BD0C
:1008B000704770477047000070B5064C7C44064D89
:1008C0007D4404E02046016808448047241DAC4272
:1008D000F8D170BD1072010010720100004870471D
:1008E000F000002010B5FFF7F9FF006810BD10B54B
:1008F0000446FFF7F3FF046010BD70B50446856938
:100900000068C10601D5302600E02026C00707D0C8
:1009100070BDD4E9012130469047206A401C206216
:100920006D1EF6D570BD70B5044685690078C007A8
:1009300007D170BDD4E9012120209047206A401CD6
:1009400020626D1EF6D570BD09684A0501D540B21A
:100950007047C905FCD500B2704709684A0501D542
:10096000C0B27047C905FCD580B2704770B50C465F
:100970000546012A05D02878800600D5EA690023BB
:1009800002E0012305E05B1C934202D2E05C0028F8
:10099000F9D1A869E618C01AA861286A1844286223
:1009A0002846FFF7AAFF04E0D5E9012114F8010B5E
:1009B0009047B442F8D32846FFF7B5FF70BD00005A
:1009C0002DE9F0410646002410687529314616A528
:1009D00010D0FFF7B9FF002802DA404213A507E064
:1009E00031688A0701D512A502E0490704D511A58F
:1009F000012401E0FFF7B1FF00210A2206F12407DC
:100A000009E0B0FBF2FCB0FBF2F302FB1C0030305B
:100A100078541846491C0028F3D123462A4630460C
:100A2000BDE8F04100F006BB000000002D00000012
:100A30002B0000002000000011680268006A5305C6
:100A400001D508700AE0D30501D5088006E0130639
:100A500003D5C217C1E9000200E008600120704719
:100A600001694A1C02610878704700B58FB0CDE972
:100A700001310021059105497944CDE90310114662
:100A8000684600F029F90FB000BD0000E5FFFFFF48
:100A90000A6802F8010B0A60704700002DE9FF5F49
:100AA00015468A460446DFF8AC80F8440027D8E9AA
:100AB00000103E46CDE9001010E03AF816106A46E4
:100AC00002A800F038FF411C07D02178890603D521
:100AD000E269391891420DD80744761C20788006C7
:100AE00002D5E069B84205DDAE42E6DB3AF8160011
:100AF0000028E2D1A069C01BA0612046FFF7FDFEDF
:100B0000D8E90010CDE90010002017E03AF81810DD
:100B10006A4602A800F00FFFB0F1FF3F81460BD0FC
:100B200000250DF1080B05E0D4E901211BF80500B3
:100B300090476D1C4D45F7D308F10100B042804647
:100B4000E4DB206A384420622046FFF7ECFEBDE873
:100B5000FF9F0000064D01002DE9F0418046D21DA7
:100B600022F007020025D2E90002F52915A614D0CB
:100B7000011E72F1000106DA0023D0EB030063EBE3
:100B8000020211A608E0D8F800108B0701D50FA6C5
:100B900002E0490701D50EA601251146002408F1FF
:100BA000240704E000F0F8F930323A55641C50EAAA
:100BB0000102F7D12B46324621464046BDE8F041BE
:100BC00000F038BA000000002D0000002B000000EB
:100BD0002000000030B4002100F1240408E002F0FD
:100BE0000705D208303542EA4372DB086554491CD8
:100BF00052EA0305F3D10468002310A2250708D5A3
:100C000004F020040C4304D0C46901230CA2641E28
:100C1000C46130BC00F00EBA10B50446214610681D
:100C2000FFF79BFE02462046BDE810400023D1E7B7
:100C3000D21D22F00701D1E90023CBE7000000001C
:100C400030000000F0B40D460188090502D5214CA2
:100C50007C4402E01F4C7C440E34002100F1240649
:100C600008E002F00F071209E75D42EA03721B0970
:100C70007754491C52EA0307F3D102780023120784
:100C800004D5702D06D009B1022311342246F0BCE0
:100C900000F0D0B901231034F8E770B504460D46D2
:100CA00021461068FFF759FE024629462046BDE856
:100CB00070400023C6E7D21D22F00703D3E90023CA
:100CC000C0E70368126843F0200303600823C36190
:100CD0000023B7E7684B01002DE9F05F8946044621
:100CE0004FF0000ADFF874B1FB44C0F820A02046A2
:100CF000E1688847002874D0252806D0D4E901216E
:100D00009047206A401C2062F1E700265F4620469B
:100D1000E16888472028054607DB312D05D2781980
:100D200010F8200C08B10643F1E7B00701D526F012
:100D30000406C4F81CA00027C4F818A02A2D09D066
:100D4000284614F00CF838B304EB8708303DC8F897
:100D5000185019E059F8041B204604EB87029161F2
:100D6000E1688847012F054618D1E069002820DA9C
:100D700026F020061DE0D8F8180000EB800005EBF7
:100D800040003038C8F818002046E168884705461A
:100D900013F0E5FF0028EED1012F0AD02E2D08D147
:100DA0002046E16888477F1C0546022F46F0200652
:100DB000C4DBA069002803DA404246F00106A061C6
:100DC000F00701D026F010066C2D0BD0682D09D04D
:100DD0004C2D39D06A2D35D0742D35D07A2D33D0A5
:100DE00016E038E0E1682F4620468847B8420546BD
:100DF00009D16C2F26D04FF48060E168064320466D
:100E00008847054604E06C2F1AD04FF480700643E3
:100E10000DB3A5F14100192802D8203546F400662B
:100E20004A462946204626604E46FFF7EDF980B136
:100E300001280BD0F61D26F0070000F1080956E73F
:100E40004020E4E78020D8E70020D6E706F1040937
:100E50004DE7284652E7206ABDE8F09FF84A0100B6
:100E60000FB40B0010B54FF000048AB00FA9009129
:100E70000E99CC60234C7C44234A7A44CDE9064247
:100E800000D004236FF00042CDE901321F4A7A44BA
:100E90006B4608920246002014F06DFC0AB010BCAC
:100EA0005DF814FBF0B507464FF0FF301E461546BF
:100EB0000C463B4685B06A460091CDE901013146BA
:100EC0000020049004A8FFF7CBFF049903466018A4
:100ED00025B109B1024600E022462A6000290ED061
:100EE000002B02DD0099814209D03B466A4631461B
:100EF000001B0094CDE9010404A8FFF7B1FF05B081
:100F0000F0BD0000DF090000F909000091010000B8
:100F10002DE9F04791460F4680460446002614F816
:100F2000015B2DB100F030F80068405DC007F6D1DC
:100F30002B2D02D02D2D18D0641E4A46394620464E
:100F400000F0AAFC27B13968A14201D1C7F800809E
:100F50004FF0020471050BD54042002803DDFFF776
:100F6000BDFC0460A007BDE8F08746F48066E4E7B6
:100F70000028F8DAFFF7B2FC04606FF00040F2E7F7
:100F800000487047F000002010B500F01DFD001D66
:100F900010BD00BF953E010030B5B0F10A0271F1FD
:100FA00000034FEA900E4EEA817EB0EB0E0061EB3B
:100FB00091014FEA101E4EEA017E10EB0E0041EB4C
:100FC00011114FEA102E4EEA016E10EB0E0041EBAC
:100FD00011214FEA104E4EEA014E10EB0E0041EB8C
:100FE0001141401841F100014FEAD00040EA417040
:100FF0004FEAD1014FEA810444EA907410EB800576
:1010000044EB01046D1944EB0404521BA3414FF05F
:10101000000348BF0A3200D530BD401C41F1000139
:1010200030BD10B50446FFF7AFFF0068005D00F06B
:10103000010010BD2DE9F0470D4699469246044641
:1010400000F124080168880604D5E06921F0100148
:10105000216000E00120A84201DD471B00E00027DD
:10106000A1697A1902EB0900081AA0612078C0066C
:1010700002D42046FFF741FC002608E0D4E9012114
:101080001AF806009047206A401C761C20624E45E4
:10109000F4DB2078C0060AD52046FFF72EFC06E0D8
:1010A000D4E9012130209047206A401C2062381E7C
:1010B000A7F10107F4DC07E0D4E9012118F80500E5
:1010C0009047206A401C2062281EA5F10105F3DC30
:1010D0002046FFF728FC2078000602D50220BDE854
:1010E000F0870120FBE72DE9FF4F0C461E464FF02D
:1010F000FF378BB0D2E90001DDF860800A908A46A4
:10110000C1F30A5505B93D46002108464FF00000DD
:10111000BAF1000F00F4400005DA00EB80004FF454
:10112000400101EA50004FEA9059B9F1010F00DD8A
:10113000B9460A9850EA4A000ED044F61050A5F27B
:10114000FF3545432F14B8F1000F1ED07542291EFC
:101150001EDDC9F100021CE0B8F1010F4FF00000E4
:1011600001D0302103E0F24305E02154401CB0429D
:10117000FBDB30460022002121540B99C1F8088086
:10118000C1E900200FB0BDE8F08FBD1B6D1CDEE78C
:101190004A4600DA694206A800F0E4FE06AB93E88E
:1011A000070003AB83E8070050460A9913F057F88D
:1011B0008DE80700A0F500501F3800900398002D1F
:1011C0000ADD42F21F014A460844002303A90390A6
:1011D000684613F003FB09E0A0F500504A461F38AB
:1011E000002303A90390684613F022FB8DE8070053
:1011F0000004000C03D04FF0FF30410800E010461F
:10120000B8F1000F03D00022009215461EE0751EB3
:1012100005D4FFF7C1FE303262556D1EF9D5B346D5
:101220000122084302D000227F1C04E020783028ED
:1012300001D100227F1E002A099784D01DE0112DC4
:1012400007DAFFF7A9FE303262556D1C50EA010241
:10125000F5D1084302D00098C8B10EE00021681E05
:1012600005E0235C625C63542254401E491C8142A9
:10127000F7DBAB46A81B401E0990002004F80B00CA
:101280000B98099AC0F80880C0E9002B7AE711266C
:101290004FF0000857E72DE9F04F88460446D21D6D
:1012A00022F0070191B0D1E90001CDE90A0113F064
:1012B0000BFC02460B98C00F01D02D2007E02068E0
:1012C000810701D52B2002E0202101EAC000032A7A
:1012D000099001D0072A05DB03464146204600F06D
:1012E00077FB0BE12078800601D5E06900E006205D
:1012F000B8F1650F814606D0B8F1660F18D0B8F185
:10130000670F70D131E00020B9F1110F009001DBBF
:10131000112301E009F101030AAA01A90CA8FFF7B2
:10132000E2FEDDE90C70002609F10105834647E085
:1013300001204B4600904FF000470AAA01A90CA8D3
:10134000FFF7D1FEDDE90DB00C995D46002610B91E
:1013500009F101000D18B9EB050003D4C0F1FF3607
:1013600009F10105A5EB09002BE0B9F1010F01DA44
:101370004FF001090020B9F1110F0090484601DD3E
:10138000112300E003460AAA01A90CA8FFF7ABFE4F
:10139000DDE90C704D4600268346207800070AD40C
:1013A000AB4500DA5D4601A8012D04DD411911F8B5
:1013B000011C302907D04F4502DA17F1040F04DA77
:1013C000012082460FE06D1EEEE7002F02DCED1BD0
:1013D0003E4403E0781CA84200DD7D1CB81B00F1F0
:1013E000010A4FF000472078000703D4AA4501DB2B
:1013F0004FF0FF3A0021B7F1004F0DF143088DF88F
:10140000431024D002202B23002F01DA7F422D230A
:101410000A21021EA0F1010000DC5FB197FBF1FC84
:1014200097FBF1F201FB1C7C17460CF1300C08F81D
:1014300001CDEEE7A8F1010003702188090501D56F
:10144000452100E06521A0F1010800F8011C099880
:101450000FA9A1EB0807FF1D00B10120411901EB05
:10146000EA70A1693844081A401EA0612078C006BD
:1014700002D42046FFF741FA099828B1D4E90121A6
:101480009047206A401C20622078C00622D5204662
:10149000FFF733FA1EE0002E04DBB34502DD01A89E
:1014A000805D00E03020D4E901219047206A401C93
:1014B0002062761CAAF101005FEA000A0AD100F05E
:1014C00083FAC0680168405CD4E901219047206A32
:1014D000401C2062281EA5F10105DCDC07E0D4E9F0
:1014E000012118F8010B9047206A401C2062381E29
:1014F000A7F10107F3DC2046FFF715FA032011B02E
:1015000041E600002DE9F04F04460D46D21D22F0C1
:10151000070089B0D0E900974846394613F0D4FA5D
:101520000246F80F01D02D2307E02068810701D57E
:101530002B2302E0202101EAC0038DF820300BB1FB
:10154000012000E00020032A824601D0072A04DBA4
:101550002946204600F03CFA3FE12078800601D47D
:101560000D2500E0E569C7F30A560D2D49DA002183
:101570004FEA175B08464FF00000002F00F44000D0
:1015800007DA00EB80004FF4400100EBD07001EA75
:1015900060008115012901DD4FF0FF3100224FEA83
:1015A000850CBCF1180F06D31346ACF118004FF0B0
:1015B0008052C24003E04FF4801323FA0CF30CF185
:1015C0000C0CBCF1200F04D3ACF1200C09FA0CF088
:1015D00001E007FA0CF000294FF0004801DD18B9CE
:1015E0000FE00ED140450CD319EB02095F4121B940
:1015F000404502D19F4329EA0209BBEB175F00D0A7
:10160000761C2088000502D57B48784402E07A48A1
:101610007844193808AA302302F80A30037C0AF10A
:101620000101002E0AF1020A53546A4602DC4FF00F
:10163000300101E04FF031014FF001088DF800104A
:1016400002D0A6F2FF3603E059EA470100D06B4E04
:10165000002D02DC2178090704D54FF002082E2165
:101660008DF80110C44600210BE0C7F303433F018E
:10167000C35C491C6D1E02F80830052908F10108F9
:1016800001DA002DF1DC00210CE000EB1973491C9C
:101690001B786D1E082902F808304FEA091908F175
:1016A000010801DA002DF0DC21688B0602D516E076
:1016B000A8F10108E04505DD02EB080313F8013C41
:1016C000302BF5D0B8F1000F09DD02EB080313F859
:1016D000013C2E2B03D1090701D4A8F10108002DEC
:1016E00005DD3E2102F808106D1E08F10108407C5E
:1016F000002E02F8080008F1010804DA2D207642D5
:1017000002F8080002E02B2002F808000A214FF43A
:101710007A70864208F101080BDB96FBF0F3303358
:1017200002F8083096FBF0F308F1010800FB13669D
:1017300001E0642E0CDB642096FBF0F3303302F8FA
:10174000083096FBF0F308F1010800FB136601E096
:101750000A2E06DB96FBF1F0303002F8080008F1A3
:10176000010896FBF1F001FB1060303002F8080030
:10177000A16908F1010808EB050202EB0A00081A4A
:10178000A0612078C00602D42046FFF7B6F8216A8F
:1017900008AE01EB0A00206204E0D4E9012116F84A
:1017A000010B9047BAF1010AF7D22078C00602D5A2
:1017B0002046FFF7A2F86E4609E016F8010B3E2816
:1017C0000FD0D4E901219047206A401C2062B8F173
:1017D0000108F2D22046FFF7A6F809B00320BDE8C1
:1017E000F08F206A2844206203E0D4E901213020F0
:1017F00090476D1EEBD3F8E7FA41010002FCFFFFB2
:1018000010B5436913B1AFF3008001E0FFF7AEF804
:10181000012010BD127800F124010A7000224A70E4
:101820000122EDE711684FF0FF32E9E710B5436997
:1018300013B1AFF3008001E0FFF730F9012010BDD4
:10184000128800F1240182840022C2840122EDE783
:1018500011684FF0FF32E9E7426842B1016811F8C0
:10186000013B23B1521EC0E9001218467047012106
:10187000C160881E704742685AB1C368016843B9A5
:1018800083688B4205D0491E521CC0E9001200201B
:1018900070474FF0FF3070472DE9F05F82461546E4
:1018A0008B4600270AF10104B9460078302801D0A0
:1018B0009DB113E014F8010B0127782803D05828B4
:1018C00001D045B10AE00DB1102D07D1002714F861
:1018D000010B102502E0082500E00A250026B0468D
:1018E0000EE005FB080005FB06F101271FFA80F852
:1018F00001EB1046B6F5803F00D3B94614F8010B52
:10190000294600F0A5F80028EBDABBF1000F05D05E
:101910000FB1641E00E05446CBF80040B9F1000F4F
:1019200006D0FEF7DBFF02210160C81EBDE8F09F74
:1019300048EA0640FAE72DE9F04116460C4605460E
:10194000FFF722FB036893F80101012807D0FF2C61
:1019500012D8185D80B101202C70BDE8F081D3F859
:1019600007013246214603F20713C7182846BC4632
:10197000BDE8F041002360474FF0FF30EDE77546CA
:10198000FFF7FEFAAE4605006946534620F0070011
:10199000854618B020B5FEF7B3FCBDE820404FF0F7
:1019A00000064FF000074FF000084FF0000BAC4668
:1019B000ACE8C009ACE8C009ACE8C009ACE8C009B3
:1019C00021F007018D467047004870471001002044
:1019D0002DE9F0411F46044603260168072A01F459
:1019E000006004DB08B116A505E016A503E008B108
:1019F00015A500E015A521F010002060A069C01E0B
:101A0000A0610FB1401EA0612046FEF776FF4FB1E6
:101A1000D4E9012138469047206A401C2062C01C4E
:101A2000206206E0206AFAE7D4E9012115F8010BEB
:101A30009047761EF8D22046FEF775FFBDE8F0818C
:101A40004E414E006E616E00494E4600696E660062
:101A50003A2800D2303820F02002412A01D3A2F1E6
:101A60003700884201D34FF0FF3070472DE9FF4F18
:101A700006468BB00878FF2806D0491C2D2805D0D3
:101A800000244FF0000908E000200CE00124F8E7F2
:101A900009EB8903491C00EB43090878FF28F7D1BB
:101AA00014B1C9F100008146107800252C46AA46E1
:101AB00029462D2801D02B2804D1521C2D2813D0C3
:101AC000002082468B461078FF280FD04FF0000C84
:101AD0000A21521CA5FB017804FB018105FB0C11B6
:101AE000C5194BEB0104EEE70120EAE700210846A7
:101AF0004FF00000BAF1000F02D000EB8000400868
:101B0000C0F38157012F01DD4FF0FF370E9955EAE1
:101B1000040009EB01080BD04FF0020918F5FA7F19
:101B200016DA4FEACA70002F706008DD012007E066
:101B30004FEACA70C6E900B00FB0BDE8F08F0020D0
:101B40003060FEF7CBFEC0F800901821084616E082
:101B5000B8F5FA7F18DD002F02DAF748784401E083
:101B6000F6487844D0E90010C6E9001040EACA708F
:101B70007060FEF7B3FEC0F80090142108460FB065
:101B8000BDE8F04F13F090BD002108464FF0000073
:101B9000B8F10001099002DAC7F1000200E03A460C
:101BA00001DAC8F1000106A800F0DCF906AB93E801
:101BB000070003AB83E8070044F23E005BEA040140
:101BC0000090584604D144F21E012C465D46009117
:101BD000210C0904014306D10099240444EA154468
:101BE0002D041039009104F07F41014306D1009982
:101BF000240244EA15642D020839009104F0704172
:101C0000014306D10099240144EA15742D01091FEE
:101C1000009104F04041014306D10099A40044EA38
:101C20009574AD00891E009104F00041084304D171
:101C300000986D196441401E00904FF001033A4630
:101C40006846B8F1000FCDE9014503A902DD12F0A5
:101C500004FE01E012F0D7FDBAF1000F04460D4674
:101C600001D084F00044002108464FF0000009999B
:101C700040F2FF77484010F00C0F07D124F00040ED
:101C8000284303D0C4F30A50B84212D1FEF726FE0F
:101C9000C0F80090C4F30A50B8420AD1A84878446A
:101CA000D0E90010C6E9001004F00041084370605C
:101CB00042E7C6E900543FE72DE9FF4F1F464FF0CA
:101CC000000A4FF0FF38454691B0D7E90146CDF8FC
:101CD0003CA0FFF779FEC0680168405C1090B969CC
:101CE00012986D1C8847396A814688470028F6D1CA
:101CF000B9F1FF3F0AD0002E24F4D06411DDB9F110
:101D00002B0F08D0B9F12D0F0BD102E0404615B0D2
:101D100013E744F48064B96912986D1C8847761EF5
:101D20008146600504A901D52D2000E02B20002E5E
:101D300001F1010B0DF130088DF810003FDDB9F114
:101D4000690F08D0B9F1490F05D0B9F16E0F02D073
:101D5000B9F14E0F1CD13B4601A8009580E8500216
:101D6000DDE912126FF0020013F009FDC11CCED1A3
:101D70000EE0B96912986D1C884781461398761E4B
:101D800044F4007405600F98401C002E0F9016DD7F
:101D9000B9F1300FEDD0B9F1780F02D0B9F1580F89
:101DA0000DD10F9801280AD13B46CDE90054DDE959
:101DB0001212001F029613F0E0FCC11CA7D110996B
:101DC00089453ED144F0800406E01399681CAAF1CD
:101DD000010A44F400740860B9696D1C1298761EFB
:101DE000884730288146F0D02BE01099894505D1ED
:101DF000200603D4761E44F0800418E0484612F012
:101E0000AEFF08B3761E0DF123029345A9F1300011
:101E100044F4007406D20BF8010B200607D5AAF192
:101E2000010003E0200602D40AF101008246A00569
:101E300002D51399681C0860B96912986D1C88470F
:101E40008146002ED1DC53E0002E51DDB9F1650F43
:101E500002D0B9F1450F4BD1A00549D5B9696D1C28
:101E60001298761E24F440748847002E81460CDDBB
:101E70002B2804D0B9F12D0F07D144F48074B9692F
:101E800012986D1C8847761E8146E00501D52D21EC
:101E900000E02B2108F8011BCDF8008021E0761E20
:101EA0000DF13901884544F400740CD2A9F13000D9
:101EB00010F0FF0088F8000002D10099884509D988
:101EC00008F1010806E0E00501D51E4801E042F2F4
:101ED0000F708246B96912986D1C88478146139825
:101EE0000560002E04DD484612F039FF0028D6D1E7
:101EF000F96912988847FF2053468BF8000088F84C
:101F0000000000200A900B9004AA0CA90AA8FFF771
:101F1000ADFDA00502D46FF00100F8E614F0240F27
:101F200012D0E0071CD13868DDE90A12031D3B60BE
:101F30000068C0E9001213E03C5E01002E5E010063
:101F4000F25C0100F1D8FFFF0AA9684612F0F4FE26
:101F5000E00705D13868009A011D39600068026009
:101F60002846D4E62DE9F047814616468AB0354822
:101F700078440DC88DE80D0032487844801C03ACCD
:101F80000DC884E80D0041F69B300844372190FBD2
:101F9000F1F290FBF1F5A5F1800501FB12041B3C69
:101FA00002D56442012000E00020DFF898A08046BE
:101FB0000027FA44AAF1BE0A0EE0E0070AD0324632
:101FC000684607EB470101230AEB810112F030FC60
:101FD0008DE8070064107F1C002CEED1194F7F4460
:101FE000AE3F19E0E80715D007EB04100DF1180A11
:101FF00090E80E008AE80E00C068F04201D19819FE
:1020000008903246012306A903A812F011FC03AB85
:1020100083E807006D10641C002DE3D14FF001032D
:1020200032466946B8F1000F03A802D012F0D6FB81
:1020300001E012F0FDFBC9E90001C9F808200AB06F
:10204000BDE8F0872439010010B50446AFF30080E5
:102050002046BDE81040FEF73EB900000000000039
:1020600030B44FF0013C50F8042B51F8043BCCFA4B
:1020700052F4D51A20D1FCB950F8042B51F8043B86
:10208000CCFA52F4D51A17D1B4B950F8042B51F840
:10209000043BCCFA52F4D51A0ED16CB950F8042B8B
:1020A00051F8043BCCFA52F4D51A05D1002CDAD001
:1020B00030BC4FF00000704729BAB1FA81F111F03D
:1020C0001801D1F120008440F2D1CA40CB4012F077
:1020D000FF0213F0FF0330BCD01A7047B2F12003A7
:1020E0000AD5C2F1200301FA02F120FA03F341EA12
:1020F000030100FA02F0704700FA03F14FF000000C
:102100007047000001491820ABBEFEE72600020020
:10211000704700002DE9FF4F1F464FF03C0987B084
:102120004FF00042DDE9141001F10108DDF858A07C
:1021300002EA40500390002005908346054604467D
:102140000490B969461E08988847AAF1010A0290CE
:10215000BAF1000F3BDD02982E2815D01021FFF7B1
:1021600077FC00282EDB4FF0010B0599014317D0B7
:10217000B9F1000F0BDB4A46C117FFF7AFFF05436C
:102180000C43A9F1040905E0012004900BE008B11B
:1021900045F0010501200590049820B9361D02E0A4
:1021A000049800B1361FB969089808F101088847FA
:1021B000BBF1000FAAF1010A0290C9D00999C1F838
:1021C0000080C5E70298702808D0502806D0F96929
:1021D00008988847BBF1000F14D04FE00020029010
:1021E0000120BBF1000F049009D0B969089808F1EB
:1021F00001088847AAF10109B9F1000F07DCF96964
:10220000089888476FF001000BB0BDE8F08F2B28CD
:1022100004D02D280CD14FF0FF300490B9690898F4
:1022200008F101088847A9F10109B9F1000FE6DDBD
:10223000411CE4D00A21FFF70BFC0028DFDB0299E8
:1022400008F1010801EB810100EB41000290B9693E
:10225000089888470A21FFF7FBFB099AA9F10109B1
:10226000B9F1000FC2F8008001DD0028E7DAF96952
:10227000089888470499029800FB016655EA040013
:1022800004D004F04041090002D006E0039898E031
:10229000A40044EA9574AD00B61E04F000410800A5
:1022A00002D16D196441761E159810F0240F03D0E9
:1022B0004FF00B095C4803E04FF028096FF07D00F8
:1022C0008246564507DAAAEB06018944B9F1410F67
:1022D00001DD4FF0410901200021A9F10102FFF7C2
:1022E000FDFE024628400B462140084301D0012153
:1022F00000E00021501E029143F1FF3128402140AF
:10230000084301D0012000E000200299834651EAF1
:102310000B014FD0002108464FF00000039900F454
:10232000400039B100EB80004FF4400100EBD07069
:1023300001EA60008015012802DD4FF0FF3000E067
:1023400013D0401C36D0029860B3BBF1000F0CD103
:102350004A4601200021FFF7C1FE284021400843E2
:1023600001D0012000E00020E0B101204A46002118
:10237000FFF7B4FE034640190A4661412D1A8C410D
:1023800011D3B9F1400F09DD159810F0240F02D0D8
:10239000AAF1340603E0AAF1170600E0761C002536
:1023A0004FF0004406E05B1E42F1FF3220EA0305D5
:1023B00021EA0204CAF10100B04206DA1B4903987F
:1023C00008430190002000900EE0039AC4F3D3214B
:1023D000E80A0A43164940EA44500A433146CDE927
:1023E0000002684612F0B1FC159810F0240F0BD0D3
:1023F0001598C00715D13868DDE90012031D3B6050
:102400000068C0E900120CE002A8694612F094FCD2
:102410001598C00705D13868029A011D3960006817
:1024200002604046F0E6000002FCFFFF0000F07F83
:102430000000F03F2DE9FF4F92461D4685B04FF05A
:102440000041DDE9124BDDE914727F1E01EA4B50B9
:10245000414940F0FF4940EA0108002122F02000F4
:102460004928049102D04E2828D04CE03BA00126F8
:1024700007C88DE80700A9690698641C88477F1E75
:10248000014606D41DF8060018B121F02001814252
:102490000BD0E96906988847032E34D0082E32D035
:1024A0006FF0010009B0BDE8F08F761C032E01D05B
:1024B000082EE0D1601CCAF80000DCE7A969069884
:1024C000641C88477F1E2AD420F02000412826D192
:1024D000A9690698641C88477F1E20D420F020003C
:1024E0004E281CD1A9690698641C88477F1E48F4B1
:1024F000002849F48009CAF8004001D4282806D0F1
:10250000E969069888475FEACB7012D022E0A96992
:102510000698641C88477F1E01D4002803DAE96905
:1025200006988847BCE72928F1D1641CCAF8004006
:10253000E9E71BF0240F07D028680499031D2B60DE
:102540000068C0E9001805E02868021D2A600068DC
:10255000C0F800902046A5E70000F07F494E4649AC
:102560004E4954590000000080B510F02BFC0020AB
:1025700080BD0000FFE7FEE780B50DF043FD40F6AB
:10258000DC00C2F2000000F0D7F90DF05FFD80BD65
:1025900080B50DF037FD40F63C10C2F2000000F0AF
:1025A000CBF90DF053FD80BD80B50DF02BFD40F251
:1025B0005C70C2F2000000F0BFF90DF047FD80BD75
:1025C00080B50DF01FFD40F69C10C2F2000000F037
:1025D000B3F90DF03BFD80BD80B50DF013FD40F665
:1025E0001C00C2F2000000F0A7F90DF02FFD80BD25
:1025F00080B50DF007FD40F2BC70C2F2000000F0A3
:102600009BF90DF023FD80BD80B50DF0FBFC40F67D
:10261000FC10C2F2000000F08FF90DF017FD80BD34
:1026200080B50DF0EFFC40F67C00C2F2000000F037
:1026300083F90DF00BFD80BD82B001900198007808
:1026400010384AF6AB21CAF6AA21A0FB01100009F6
:102650000090009945F61810C0F60100405C019901
:10266000C8650098042807D3FFE701990868042289
:1026700062F30900886506E00199086840F2FF32BC
:1026800090438865FFE70198806D02B070470000B5
:1026900086B0059000208DF813000598806A03909D
:1026A0000598806910BBFFE70398029003281BD8A8
:1026B0000299DFE801F0020D0218059890F82F004A
:1026C000C00720B1FFE701208DF81300FFE70CE001
:1026D0000598C06AB0F1C07F04D1FFE701208DF8F2
:1026E0001300FFE701E000E0FFE745E0059880699F
:1026F000B0F5005F25D1FFE70398019003281ED8AD
:102700000199DFE801F00206021101208DF81300A3
:1027100016E0059890F82F00C00720B1FFE70120D0
:102720008DF81300FFE70BE00598C06AB0F1C07F99
:1027300004D1FFE701208DF81300FFE700E0FFE779
:1027400019E003980090032804D3FFE700980328BA
:1027500004D00EE001208DF813000BE0059890F8EE
:102760002F00C00720B1FFE701208DF81300FFE71D
:1027700000E0FFE7FFE7FFE79DF8130006B07047B2
:1027800084B0039002910192009303980168086855
:1027900020F4802008600098039909684860039835
:1027A0008068402809D1FFE701980399096888608B
:1027B000029803990968C86008E0029803990968BB
:1027C0008860019803990968C860FFE704B0704702
:1027D0007047000080B50DF015FC012000F05CFB97
:1027E0000DF034FC80BD000081B0EFF3108072B6B4
:1027F0000090FFE7FEE7000080B584B002900298E9
:10280000806D019000F02EFD0090029890F8350048
:1028100002280DD0FFE7029980204865FFE7029962
:10282000002081F83400FFE701208DF80F0055E00B
:1028300002980168086820F0160008600298016894
:10284000486920F0800048610298006C20B9FFE7D9
:102850000298806C38B1FFE702980168086820F0A0
:1028600008000860FFE702980168086820F001008E
:102870000860FFE7029800680068C007C8B1FFE77A
:1028800000F0F0FC0099401A062811D3FFE70299E6
:10289000202048650299032081F83500FFE702995E
:1028A000002081F83400FFE703208DF80F0015E0C9
:1028B000E0E70298C16D3F20884001998860029945
:1028C000012081F83500FFE70299002081F83400EB
:1028D000FFE7FFE700208DF80F00FFE79DF80F00EE
:1028E00004B080BD82B00090009890F835000228B6
:1028F00007D0FFE700998020486501208DF8070088
:102900000EE00099052081F83500009801680868FC
:1029100020F001000860FFE700208DF80700FFE7C6
:102920009DF8070002B0704781B00090009890F8C1
:10293000350001B07047000080B586B005900020DA
:10294000039040F20000C2F20000006848F2B511A6
:10295000C1F64E31A0FB0110800A02900598806DEF
:10296000019001980068049004980599C96DC840C9
:10297000000700281AD5FFE705980068006840079F
:10298000002812D5FFE705980168086820F00400C8
:1029900008600598C16D08208840019988600599F4
:1029A000486D40F001004865FFE7FFE7049805998E
:1029B000C96DC840C007A0B1FFE70598006840692D
:1029C000000600280CD5FFE70598C16D012088405E
:1029D000019988600599486D40F002004865FFE75D
:1029E000FFE704980599C96DC8404007002814D531
:1029F000FFE7059800680068800700280CD5FFE70E
:102A00000598C16D04208840019988600599486D3A
:102A100040F004004865FFE7FFE704980599C96D99
:102A2000C840C006002847D5FFE705980068006841
:102A3000000700283FD5FFE70598C16D10208840AA
:102A400001998860059800680068400300281AD53D
:102A5000FFE70598006800680003002809D4FFE735
:102A60000598006C20B1FFE70598016C8847FFE7E7
:102A700008E00598806C20B1FFE70598816C8847D5
:102A8000FFE7FFE716E0059800680068C00500282A
:102A900007D4FFE705980168086820F0080008607F
:102AA000FFE70598006C20B1FFE70598016C8847A7
:102AB000FFE7FFE7FFE7FFE704980599C96DC84006
:102AC0008006002840F18D80FFE7059800680068C7
:102AD000C006002840F18480FFE70598C16D2020E2
:102AE000884001998860059890F83500052834D110
:102AF000FFE705980168086820F01600086005984F
:102B00000168486920F0800048610598006C20B990
:102B1000FFE70598806C38B1FFE705980168086801
:102B200020F008000860FFE70598C16D3F2088404D
:102B3000019988600599012081F83500FFE7059922
:102B4000002081F83400FFE70598006D20B1FFE711
:102B50000598016D8847FFE77BE0059800680068ED
:102B6000400300281AD5FFE70598006800680003B5
:102B7000002809D4FFE70598406C20B1FFE70598CD
:102B8000416C8847FFE708E00598C06B20B1FFE77C
:102B90000598C16B8847FFE7FFE720E005980068CC
:102BA0000068C005002811D4FFE70598016808688F
:102BB00020F0100008600599012081F83500FFE73A
:102BC0000599002081F83400FFE7FFE70598C06B06
:102BD00020B1FFE70598C16B8847FFE7FFE7FFE7F4
:102BE000FFE70598406DA0B3FFE70598406DC0076B
:102BF00030B3FFE70599052081F835000598016895
:102C0000086820F001000860FFE703980130039096
:102C10000299884201D9FFE707E0FFE705980068BD
:102C20000068C0070028F0D1FFE70599012081F86E
:102C30003500FFE70599002081F83400FFE7FFE742
:102C40000598C06C20B1FFE70598C16C8847FFE785
:102C5000FFE706B080BD000080B586B0049000207C
:102C6000039000F0FFFA0290049820B9FFE70120DA
:102C70008DF81700A3E00498406A08B1FFE7FFE76A
:102C80000499022081F83500FFE70499002081F8BB
:102C90003400FFE704980168086820F0010008602C
:102CA000FFE7049800680068C00790B1FFE700F0F4
:102CB000D9FA0299401A06280AD3FFE7049920207E
:102CC00048650499032081F835008DF8170076E0F7
:102CD000E7E70498006800680390039848F23F0112
:102CE000CFF2100108400390049900914868D1F890
:102CF00008C0CB680A6940EA0C00184310434A69CF
:102D000010438A691043CA691043096A0143039852
:102D1000084303900498406A042808D1FFE7049907
:102D2000C86A096B0143039808430390FFE70398BF
:102D30000499096808600498006840690390039842
:102D400020F0070003900498416A03980843039019
:102D50000498406A04281AD1FFE70498816A03980E
:102D6000084303900498C06A80B1FFE70498FFF716
:102D70008FFC50B1FFE70499402048650499012079
:102D800081F835008DF8170019E0FFE7FFE7039899
:102D90000499096848610498FFF74EFC0190049873
:102DA000C16D3F20884001998860049900204865E2
:102DB000049A012182F835108DF81700FFE79DF87D
:102DC000170006B080BD000080B588B00690059160
:102DD0000492039300208DF80B000698806D0190FB
:102DE000FFE7069890F83400012804D1FFE702209D
:102DF0008DF81F0045E00699012081F83400FFE7B7
:102E0000FFE7069890F8350001282BD1FFE70699D7
:102E1000022081F83500069900204865069805993A
:102E2000049A039BFFF7ACFC0698C16D3F208840D5
:102E30000199886006980168086840F016000860EB
:102E40000698006C38B1FFE706980168086840F002
:102E500008000860FFE706980168086840F0010074
:102E6000086009E0FFE70699002081F83400FFE7D9
:102E700002208DF80B00FFE79DF80B008DF81F0076
:102E8000FFE79DF81F0008B080BD000081B0ADF8DD
:102E9000020001B07047000080B582B0ADF80600B6
:102EA00043F61440C4F201000068BDF80610084261
:102EB0000CD0FFE7BDF8060043F61441C4F201014F
:102EC0000860BDF80600FFF7E1FFFFE702B080BD34
:102ED0008BB00A9009910020079006900590089009
:102EE000FFE708980F2800F2A281FFE70899012068
:102EF000884007900998006807990840069006984E
:102F00000799884240F08E81FFE70998406800F0F9
:102F10000300012807D0FFE70998406800F003008C
:102F200002282FD1FFE70A98806805900898410091
:102F3000032000FA01F10598884305900998C068BC
:102F40000899490000FA01F1059808430590059891
:102F50000A9988600A98406805900899012000FA4B
:102F600001F105988843059009984068C0F3001066
:102F7000089900FA01F105980843059005980A9907
:102F80004860FFE70998406800F00300032818D064
:102F9000FFE70A98C068059008984100032000FAEE
:102FA00001F10598884305900998806808994900BF
:102FB00000FA01F105980843059005980A99C86040
:102FC000FFE70998406800F00300022826D1FFE7D8
:102FD0000A9808996FF0030202EA51010844006A56
:102FE0000590089800F0070081000F2000FA01F119
:102FF00005988843059009980069089901F0070130
:10300000890000FA01F105980843059005980A998E
:10301000089B02EA530211440862FFE70A9800681D
:10302000059008984100032000FA01F105988843B3
:1030300005900998406800F003000899490000FADB
:1030400001F105980843059005980A9908600998C8
:1030500080798007002800F0E480FFE7FFE7002088
:10306000049043F64400C4F20200016841F4804138
:103070000160006800F4804004900498FFE708981D
:1030800020F0030043F60801C4F201014058059006
:10309000089800F0030081000F2000FA01F1059864
:1030A000884305900A980021C4F20201884203D1A6
:1030B000FFE70020039034E00A9840F20041C4F298
:1030C0000201884203D1FFE70120029026E00A981E
:1030D00040F60001C4F20201884203D1FFE702205A
:1030E000019018E00A9840F60041C4F202018842BB
:1030F00003D1FFE7032000900AE00A9941F20002A1
:10310000C4F202020720914208BF04200090FFE7AA
:1031100000980190FFE701980290FFE70298039062
:10312000FFE70398C0B2089901F00301890000FA93
:1031300001F10598084305900598089921F00301CD
:1031400043F60802C4F20102885043F60040C4F27C
:103150000100006805900699059888430590099834
:103160008079C00728B1FFE70699059808430590C4
:10317000FFE7059843F60041C4F20101086043F6F9
:103180000440C4F201000068059006990598884340
:103190000590099880798007002805D5FFE70699F2
:1031A000059808430590FFE7059843F60441C4F2EB
:1031B0000101086043F60840C4F201000068059070
:1031C000069905988843059009988079C0060028DB
:1031D00005D5FFE70699059808430590FFE7059890
:1031E00043F60841C4F20101086043F60C40C4F202
:1031F0000100006805900699059888430590099894
:1032000080798006002805D5FFE7069905980843D0
:103210000590FFE7059843F60C41C4F201010860F0
:10322000FFE7FFE7FFE708980130089059E60BB089
:103230007047000082B00190ADF802108DF80120B7
:103240009DF8010028B1FFE7BDF8020001998861EF
:1032500005E0BDF80200000401998861FFE702B0B3
:10326000704700004BF65450C2F2000000687047EF
:1032700081B0009001B0704782B001908DF80310CA
:10328000ADF8002002B0704780B58AB00990099867
:103290000068406904900998006840680390002025
:1032A0000290099890F83E008DF807009DF81100F3
:1032B000C00778B1FFE79DF80D00C00750B1FFE7E8
:1032C000029840F001000290099801686FF4807044
:1032D0004861FFE79DF8110000F002010020B0EB0B
:1032E000510F0FD0FFE79DF80D00C00750B1FFE769
:1032F000029840F002000290099801686FF4007093
:103300004861FFE79DF8110000F004010020B0EBD8
:10331000910F50D0FFE79DF80D00C00700284AD05C
:10332000FFE79DF807008DF823000998408D07906E
:10333000099890F83D008DF81B000998006B0590E6
:103340009DF8230020281AD1FFE70798B8B9FFE7B6
:103350009DF81B0021280ED0FFE79DF81B002928AF
:1033600009D0FFE79DF81B00282808D1FFE7059842
:10337000212804D1FFE7099805F03AF81AE00998E6
:1033800001686FF480604861029840F00400029088
:103390009DF80700102805D0FFE79DF8070040289A
:1033A00007D1FFE709980168086840F400700860D9
:1033B000FFE7FFE7FFE79DF8110000F0080100209C
:1033C000B0EBD10F0FD0FFE79DF80D00C00750B153
:1033D000FFE7029840F008000290099801686FF436
:1033E00000604861FFE7029848B1FFE7029A099937
:1033F000086C10430864099803F0ACFFFFE70AB0BB
:1034000080BD000080B588B0079000200590079827
:103410000068406804900798C06A0390079890F885
:103420003E008DF80B00079890F83D008DF80A00DB
:103430009DF80B00102806D0FFE79DF80B004028F0
:1034400040F00081FFE707980068806905900798C1
:103450000068406906900698C007A0B9FFE7039985
:103460000120B1F52A0F019008D0FFE7039800F181
:10347000AC40B0FA80F040090190FFE70198C00726
:1034800008B1FFE7A1E10698C00780B1FFE79DF80A
:10349000110000F002010020B0EB510F07D0FFE750
:1034A000079803F091FE079804F006FDC9E09DF827
:1034B000180000F008010020B0EBD10F0DD0FFE79D
:1034C0009DF8110000F002010020B0EB510F04D074
:1034D000FFE7079804F02CFBB2E09DF8180000F01D
:1034E00002010020B0EB510F0DD0FFE79DF8110055
:1034F00000F002010020B0EB510F04D0FFE7079865
:1035000004F03AFB9BE09DF8140000F00401002059
:10351000B0EB910F50D0FFE707980068406800F4C7
:103520000060B0F5006F46D0FFE79DF8181000204E
:10353000B0EBD11F16D0FFE79DF8110000F0040199
:103540000020B0EB910F0DD0FFE79DF8180000F0C0
:1035500004010020B0EB910F04D1FFE7079804F0BD
:1035600047FA27E09DF8180000F004010020B0EBB6
:10357000910F1DD0FFE79DF8110000F0020100201F
:10358000B0EB510F14D0FFE79DF80A00212804D1B9
:10359000FFE7079804F0BCF909E09DF80B0040280C
:1035A00004D1FFE7079804F0FFFCFFE7FFE700E026
:1035B000FFE7FFE7FFE741E007980068406800F495
:1035C0000060B0F5006F38D0FFE79DF8180000F0FC
:1035D00040010020B0EB911F16D0FFE79DF81100CD
:1035E00000F004010020B0EB910F0DD0FFE79DF833
:1035F000180000F004010020B0EB910F04D1FFE7A8
:10360000079804F0E7F817E09DF8180000F00401AF
:103610000020B0EB910F0DD0FFE79DF8110000F0F6
:1036200002010020B0EB510F04D0FFE7079804F02F
:1036300001F800E0FFE7FFE7FFE7FFE7FFE7FFE74D
:10364000FFE7C2E00798006C28B1FFE70798006821
:103650004069069008E0079800688069059007981F
:10366000006840690690FFE79DF8180000F002012D
:103670000020B0EB510F17D0FFE79DF8110000F0CC
:1036800002010020B0EB510F0ED0FFE70798006C4D
:1036900028B1FFE70798006880690590FFE7079861
:1036A000059904F04DFE8FE09DF8180000F0100120
:1036B0000020B0EB111F0DD0FFE79DF8110000F0C6
:1036C00002010020B0EB510F04D0FFE7079804F08F
:1036D000FFFE78E09DF80A00212805D0FFE79DF85D
:1036E0000A00292836D1FFE79DF818100020B0EB1A
:1036F000D11F16D0FFE79DF8110000F00401002053
:10370000B0EB910F0DD0FFE79DF8180000F0040119
:103710000020B0EB910F04D1FFE7079804F0DAFD29
:1037200017E09DF8180000F004010020B0EB910FA5
:103730000DD0FFE79DF8110000F002010020B0EB72
:10374000510F04D0FFE7079804F0AEFD00E0FFE75B
:10375000FFE737E09DF8180000F040010020B0EBD3
:10376000911F16D0FFE79DF8110000F00401002022
:10377000B0EB910F0DD0FFE79DF8180000F00401A9
:103780000020B0EB910F04D1FFE7079804F054FD3F
:1037900017E09DF8180000F004010020B0EB910F35
:1037A0000DD0FFE79DF8110000F002010020B0EB02
:1037B000510F04D0FFE7079804F026FD00E0FFE773
:1037C000FFE7FFE7FFE7FFE7FFE708B080BD000086
:1037D00081B0009001B0704780B58EB00C900C980D
:1037E00020B9FFE701208DF8370043E10C9890F8ED
:1037F0003D0040B9FFE70C99002081F83C000C988F
:1038000000F058FAFFE70C99242081F83D000C984D
:103810000168086820F0010008600C9801680868D9
:1038200040F4004008600C980168086820F40040EB
:10383000086000F0D9FC0A900C98406848F2A0613A
:10384000C0F2010188420BD8FFE70A9948F2804292
:10385000C0F21E020020914238BF012009900AE008
:103860000A9940F60012C0F23D020020914238BF92
:1038700001200990FFE70998012804D1FFE7012002
:103880008DF83700F6E00A984DF68361C4F21B31DB
:10389000A0FB0110800C0B900C980068406820F091
:1038A0003F000B9908430C99096848600C98006820
:1038B000006A20F03F0008900C98406848F2A06130
:1038C000C0F20101884204D8FFE70B98013007904D
:1038D0000EE00B984FF49671484344F6D351C1F271
:1038E0006201A0FB0101012000EB91100790FFE7AE
:1038F0000898079908430C99096808620C980068B1
:10390000C0694CF6FF71884306900C98406848F2F5
:10391000A061C0F2010188421FD8FFE70A98013870
:103920000C9949684900B0FBF1F001306FF31F308A
:10393000032803D8FFE7042005900BE00A9801381C
:103940000C9949684900B0FBF1F001306FF31F306A
:103950000590FFE7059804904CE00C98806868B9E2
:10396000FFE70A9801380C99496801EB4101B0FB67
:10397000F1F001306FF31F3003900DE00A98013829
:103980000C99496819225143B0FBF1F00130042130
:1039900061F31F300390FFE70398000518B9FFE7B4
:1039A0000120029023E00C98806868B9FFE70A982C
:1039B00001380C99496801EB4101B0FBF1F001308D
:1039C0006FF31F3001900DE00A9801380C99496897
:1039D00019225143B0FBF1F00130042161F31F3093
:1039E0000190FFE7019840F400400290FFE7029841
:1039F0000490FFE70698049908430C990968C86188
:103A00000C980068006820F0C0000C9B1968DA6907
:103A10001B6A1A43104308600C980068806848F2DB
:103A2000FF3188430C9A1168D36812691A43104316
:103A300088600C980068C06820F0FF000C9B196833
:103A40005A699B691A431043C8600C98016808685A
:103A500040F0010008600C99002008640C9A2021B5
:103A600082F83D100C9908630C9981F83E008DF89E
:103A70003700FFE79DF837000EB080BD81B00090A1
:103A800001B0704781B0009001B0704781B00090E4
:103A900001B0704781B0009001B0704781B00090D4
:103AA00001B0704710B588B084460C980B98DDF8CB
:103AB00028E0CDF818C0ADF81610ADF81420ADF818
:103AC0001230ADF81000FFF7CDFB0390069890F888
:103AD0003D00202840F0E680FFE7069803996A46FB
:103AE00011600221C0F210010122192304F062FECC
:103AF00020B1FFE702208DF81F00D7E0FFE706980E
:103B000090F83C00012804D1FFE702208DF81F0047
:103B1000CCE00699012081F83C00FFE7FFE706981A
:103B200000680068C00738B9FFE7069801680868B0
:103B300040F001000860FFE706980168086820F47B
:103B4000006008600699212081F83D000699402018
:103B500081F83E000699002008640A980699486298
:103B6000BDF81000069948850698408D069908858D
:103B700006990020CFF6FF70C8620698BDF81610AF
:103B8000BDF81420BDF81230DDF830C0039CEE46BD
:103B9000CEF80440CEF800C004F098FA20B1FFE758
:103BA00001208DF81F0081E0FFE70698008D0028B6
:103BB00049D0FFE706980C99039A04F01FFF80B1E3
:103BC000FFE70698006C042807D1FFE70698016814
:103BD000086840F400700860FFE701208DF81F00BE
:103BE00064E006980168406A007808610699486AAE
:103BF000013048620699088D013808850699488D7C
:103C00000138488506980068406900F004010120E9
:103C1000B0EB910F16D1FFE70698008D90B1FFE74A
:103C200006980168406A007808610699486A013080
:103C300048620699088D013808850699488D013833
:103C40004885FFE7B1E706980C99039A04F066FDF2
:103C500080B1FFE70698006C042807D1FFE70698BB
:103C60000168086840F400700860FFE701208DF8E3
:103C70001F001BE006980168086840F400700860A7
:103C80000699202081F83D000699002081F83E0029
:103C9000FFE70699002081F83C00FFE700208DF83F
:103CA0001F0003E002208DF81F00FFE79DF81F00B2
:103CB00008B010BD80B58CB00B9000200A90099020
:103CC0000890079006900B98006845F20041C4F2F6
:103CD0000001884247D1FFE7FFE70020059043F647
:103CE0003000C4F20200016841F002010160006886
:103CF00000F0020005900598FFE7C0200690122012
:103D00000790002008900320099004200A9040F2B8
:103D10000040C4F2020006A9FFF7DAF8FFE700202E
:103D2000049043F64000C4F20200016841F400111F
:103D30000160006800F4001004900498FFE71F2061
:103D4000019002210022029200F0CAF8019800F0CE
:103D5000BDF8029A20200390032100F0C1F80398D7
:103D600000F0B4F8FFE70CB080BD000081B0009017
:103D700001B0704781B0009001B0704740F2CA00B6
:103D8000C2F2000002784BF65451C2F200010868FA
:103D9000104408607047000080B543F60041C4F24B
:103DA0000201086840F400700860086840F4806010
:103DB0000860086840F480700860032000F0AAF8EA
:103DC0000F2000F005F800F05BF8002080BD000037
:103DD00080B58CB00A900022049203920A991920AF
:103DE000009000F07DF8009800F070F8FFE70020E8
:103DF000019043F64400C4F20200016841F0010161
:103E00000160006800F0010001900198FFE705A83B
:103E100002A900F0B9F900F0F9F9049004984DF600
:103E20008361C4F21B31A0FB01014FF0FF3000EBB6
:103E30009140039040F63830C2F200000021C4F2F5
:103E40000101016040F2E731C16003994160002146
:103E50000161816001F0FAFD48B9FFE740F63830B2
:103E6000C2F2000001F06AFE8DF82F0003E001208D
:103E70008DF82F00FFE79DF82F000CB080BD0000EB
:103E800082B0FFE70020019043F64400C4F2020034
:103E9000016841F480410160006800F480400190B5
:103EA0000198FFE7FFE70020009043F64000C4F2CE
:103EB0000200016841F080510160006800F080500C
:103EC00000900098FFE702B07047000080B582B014
:103ED0008DF807009DF9070006F034FC02B080BDA4
:103EE00080B586B08DF817000491039200200290EF
:103EF00006F040FC02909DF9170001900298049989
:103F0000039A04F05FFF0146019806F03BFC06B0FF
:103F100080BD000080B582B00190019806F054FC8D
:103F200002B080BD80B584B002900191029820B9A2
:103F3000FFE701208DF80F0021E1019843F60041D1
:103F4000C4F20201096801F00701884212D9FFE7B3
:103F5000019943F60040C4F202000170006800F0CD
:103F600007000199884204D0FFE701208DF80F0077
:103F700005E1FFE702980078800700282AD5FFE7CF
:103F8000029800784007002809D5FFE743F60801AA
:103F9000C4F20201086840F4E0500860FFE70298AC
:103FA00000780007002809D5FFE743F60801C4F2AE
:103FB0000201086840F460400860FFE743F608012A
:103FC000C4F20201086820F0F000029A92681043DF
:103FD0000860FFE702980078C00700286ED0FFE76E
:103FE00002984068012811D1FFE743F60000C4F2AF
:103FF0000200006800F400310020B0EB514F04D102
:10400000FFE701208DF80F00B9E02CE0029840682E
:10401000022805D0FFE702984068032811D1FFE786
:1040200043F60000C4F20200006800F000710020B6
:10403000B0EB516F04D1FFE701208DF80F009EE037
:1040400010E043F60000C4F20200006800F0020134
:104050000020B0EB510F04D1FFE701208DF80F00D5
:104060008DE0FFE7FFE743F60801C4F202010868AC
:1040700020F00300029A526810430860FFF7F2F83C
:104080000090FFE743F60800C4F20200006800F069
:104090000C0002994968B0EB810F0ED0FFE7FFF7E3
:1040A000E1F80099401A41F28931884204D3FFE7D0
:1040B00003208DF80F0062E0E4E7FFE7019843F684
:1040C0000041C4F20201096801F00701884212D2DE
:1040D000FFE7019943F60040C4F202000170006856
:1040E00000F007000199884204D0FFE701208DF815
:1040F0000F0044E0FFE702980078400700280CD545
:10410000FFE743F60801C4F20201086820F4E0501A
:10411000029AD26810430860FFE70298007800070F
:1041200000280DD5FFE743F60801C4F20201086834
:1041300020F46040029A126940EAC2000860FFE77A
:1041400000F076F843F60801C4F202010968C9B22A
:104150000A0945F60011C0F60101895CC84040F229
:104160000001C2F20001086040F2CC00C2F200007F
:104170000068FFF72DFE00208DF80F00FFE79DF887
:104180000F0004B080BD000082B001900091019941
:104190000F20086043F60800C4F20200016801F035
:1041A0000301019A5160016801F0F001019A9160E8
:1041B000016801F4E051019AD160006800F46040A8
:1041C000C0080199086143F60040C4F2020000688B
:1041D00000F007000099086002B0704740F200004C
:1041E000C2F200000068704780B5FFF7F7FF43F6A2
:1041F0000801C4F202010968C1F3822245F61011D8
:10420000C0F60101895CC84080BD000080B5FFF7A1
:10421000E5FF43F60801C4F20201096889B24A0BBE
:1042200045F61011C0F60101895CC84080BD000050
:1042300080B586B00020059004900390029043F66C
:104240000800C4F20200006800F00C000146019171
:1042500040B1FFE7019804280AD0FFE70198082839
:104260000CD04FE042F20040C0F2F40002904FE068
:1042700047F64000C0F27D10029049E043F604008A
:10428000C4F20200016801F03F010591006840029C
:10429000002813D5FFE743F60400C4F202000068CB
:1042A000C0F3881047F64001C0F27D11A0FB010168
:1042B000059A0023FCF7E0F8049012E043F60400AE
:1042C000C4F202000068C0F3881042F20041C0F25C
:1042D000F401A0FB0101059A0023FCF7CDF804903E
:1042E000FFE743F60400C4F20200006800F4403126
:1042F000022000EBD130039004980399B0FBF1F059
:10430000029005E042F20040C0F2F4000290FFE7A4
:10431000029806B080BD000080B586B00490049875
:1043200020B9FFE701208DF8170050E304980078CA
:10433000C007002800F0A580FFE743F60800C4F29C
:104340000200006800F00C00042813D0FFE743F6D9
:104350000800C4F20200006800F00C0008281ED11A
:10436000FFE743F60400C4F20200006840020028A0
:1043700015D5FFE743F60000C4F20200006800F420
:1043800000310020B0EB514F08D0FFE7049840689F
:1043900020B9FFE701208DF8170018E370E0FFE770
:1043A00004984068B0F5803F09D1FFE743F600016B
:1043B000C4F20201086840F48030086020E00498EC
:1043C0004068B0F5A02F0DD1FFE743F60001C4F21D
:1043D0000201086840F480200860086840F48030DA
:1043E00008600CE043F60001C4F20201086820F402
:1043F00080300860086820F480200860FFE7FFE74D
:10440000FFE704984068E8B1FFE7FEF72BFF039051
:10441000FFE743F60000C4F20200006800F4003138
:104420000020B0EB514F0CD1FFE7FEF71BFF0399C3
:10443000401A652804D3FFE703208DF81700C6E271
:10444000E7E71CE0FEF70EFF0390FFE743F60000EE
:10445000C4F20200006800F400310020B0EB514FBC
:104460000CD0FFE7FEF7FEFE0399401A652804D33F
:10447000FFE703208DF81700A9E2E7E7FFE7FFE772
:10448000FFE7049800788007002840F19680FFE756
:1044900043F60800C4F20200006810F00C0F13D0BD
:1044A000FFE743F60800C4F20200006800F00C00C9
:1044B00008282CD1FFE743F60400C4F2020000688C
:1044C0004002002823D4FFE743F60000C4F20200B4
:1044D000006800F002010020B0EB510F09D0FFE7A7
:1044E0000498C068012804D0FFE701208DF8170068
:1044F0006DE243F60001C4F20201086820F0F80002
:10450000049A126940EAC2000860FFE754E0049888
:10451000C06870B3FFE70021C4F2472101200860A2
:10452000FEF7A0FE0390FFE743F60000C4F202008E
:10453000006800F002010020B0EB510F0CD1FFE742
:10454000FEF790FE0399401A032804D3FFE70320E7
:104550008DF817003BE2E7E743F60001C4F20201E1
:10456000086820F0F800049A126940EAC200086066
:1045700021E00021C4F2472100200860FEF772FE0E
:104580000390FFE743F60000C4F20200006800F069
:1045900002010020B0EB510F0CD0FFE7FEF762FEE6
:1045A0000399401A032804D3FFE703208DF817006E
:1045B0000DE2E7E7FFE7FFE7FFE704980078000771
:1045C00000284BD5FFE70498406918B3FFE740F691
:1045D0008061C4F2472101200860FEF743FE03908A
:1045E000FFE743F67400C4F20200006800F0020125
:1045F0000020B0EB510F0CD1FFE7FEF733FE03991B
:10460000401A032804D3FFE703208DF81700DEE1EA
:10461000E7E722E040F68061C4F24721002008600D
:10462000FEF720FE0390FFE743F67400C4F2020099
:10463000006800F002010020B0EB510F0CD0FFE742
:10464000FEF710FE0399401A032804D3FFE7032066
:104650008DF81700BBE1E7E7FFE7FFE70498007874
:104660004007002840F1CE80FFE700208DF80700CA
:1046700043F64000C4F202000068C000002815D4D0
:10468000FFE7FFE70020009043F64000C4F202007D
:10469000016841F080510160006800F08050009096
:1046A0000098FFE701208DF80700FFE747F20000C0
:1046B000C4F200000068C005002822D4FFE747F2DA
:1046C0000001C4F20001086840F480700860FEF741
:1046D000C9FD0390FFE747F20000C4F20000006844
:1046E000C00500280CD4FFE7FEF7BCFD0399401A73
:1046F000032804D3FFE703208DF8170067E1EAE7FA
:10470000FFE7FFE704988068012809D1FFE743F637
:104710007001C4F20201086840F0010008601FE067
:104720000498806805280DD1FFE743F67001C4F2B4
:104730000201086840F004000860086840F00100C9
:1047400008600CE043F67001C4F20201086820F032
:1047500001000860086820F004000860FFE7FFE738
:10476000FFE704988068F8B1FFE7FEF77BFD039050
:10477000FFE743F67000C4F20200006800F0020197
:104780000020B0EB510F0ED1FFE7FEF76BFD039950
:10479000401A41F28931884204D3FFE703208DF8A3
:1047A000170014E1E5E71EE0FEF75CFD0390FFE76C
:1047B00043F67000C4F20200006800F0020100201D
:1047C000B0EB510F0ED0FFE7FEF74CFD0399401AF6
:1047D00041F28931884204D3FFE703208DF81700A6
:1047E000F5E0E5E7FFE79DF80700012809D1FFE7BD
:1047F00043F64001C4F20201086820F080500860CE
:10480000FFE7FFE704988069002800F0DC80FFE7FD
:1048100043F60800C4F20200006800F00C0008280B
:1048200000F08580FFE70498806902285CD1FFE7EB
:104830006021C4F2472100200860FEF713FD0390B9
:10484000FFE743F60000C4F20200006800F00071C8
:104850000020B0EB516F0CD0FFE7FEF703FD03998A
:10486000401A032804D3FFE703208DF81700AEE0B9
:10487000E7E70499C869D1F820C04B6A8A6A40EA20
:104880000C0040EA8310D2034FF6FF739A43A2F55F
:1048900080321043C96A40EA016043F60401C4F261
:1048A000020108606021C4F2472101200860FEF780
:1048B000D9FC0390FFE743F60000C4F20200006851
:1048C00000F000710020B0EB516F0CD1FFE7FEF754
:1048D000C9FC0399401A032804D3FFE703208DF88D
:1048E000170074E0E7E721E06021C4F247210020CF
:1048F0000860FEF7B7FC0390FFE743F60000C4F240
:104900000200006800F000710020B0EB516F0CD085
:10491000FFE7FEF7A7FC0399401A032804D3FFE73B
:1049200003208DF8170052E0E7E7FFE74AE004981C
:104930008069012804D1FFE701208DF8170046E0C7
:1049400043F60400C4F202000068029004988069F3
:10495000012831D0FFE7029800F480000499C9696A
:10496000884229D1FFE7029800F03F000499096AC4
:10497000884221D1FFE7029847F6C07108400499A8
:10498000496AB0EB811F17D1FFE7029800F440306D
:104990000499896AC9034FF6FF729143A1F58031EA
:1049A000884209D1FFE7029800F070600499C96A53
:1049B000B0EB016F04D0FFE701208DF8170006E08F
:1049C000FFE7FFE7FFE700208DF81700FFE79DF8FE
:1049D000170006B080BD000081B0009001B07047A4
:1049E00080B588B0079000208DF81B00012005904D
:1049F00040F20000C2F2000000684AF6AB21CAF69D
:104A0000AA21A0FB0110000944F6D351C1F26201B2
:104A1000A0FB01108009642148430390039804908F
:104A200007980168486820F02000486007980068EF
:104A30004068000600281DD5FFE7079949F20500E8
:104A4000C0F600004864FFE7049830B9FFE7079913
:104A5000486D40F04000486509E004980138049032
:104A6000FFE7079890F851000728EDD1FFE703987A
:104A70000490FFE7079800684068400600281DD5AD
:104A8000FFE7079948F67970C0F600000864FFE771
:104A9000049830B9FFE70799486D40F04000486539
:104AA00009E0049801380490FFE7079890F8510056
:104AB0000728EDD1FFE703980490FFE70798806C83
:104AC000A8B1FFE70798006840688007002808D56C
:104AD000FFE70798816C49F20520C0F600000865E1
:104AE00004E00798816C00200865FFE7FFE707985E
:104AF000C06CA0B1FFE7079800684068C00740B1EC
:104B0000FFE70798C16C49F24510C0F60000086540
:104B100004E00798C16C00200865FFE7FFE70798ED
:104B2000006840688007002817D5FFE70798806C69
:104B300090B1FFE70798806CFDF7D4FE40B1FFE726
:104B40000798816C0020086507994020486502E0BD
:104B500000200590FFE7FFE7FFE70798006840683F
:104B6000C007B8B1FFE70798C06C90B1FFE707989E
:104B7000C06CFDF7B7FE40B1FFE70798C16C00209D
:104B8000086507994020486502E000200590FFE78E
:104B9000FFE7FFE70598012830D1FFE707990020DC
:104BA000C8870799C8860798406D402804D1FFE759
:104BB00001208DF81B0003E0079900204865FFE7FE
:104BC000FFE70020029007980068C06802900798ED
:104BD0000068806802900298FFE7FFE700200190DC
:104BE00007980068806801900198FFE70799012005
:104BF00081F851000798FFF7EFFEFFE79DF81B00D3
:104C000008B080BD81B0009001B0704780B588B019
:104C100007900798006840680690079800688068C9
:104C200005909DF8140000F040010020B0EB911FAA
:104C300011D1FFE70598C00768B1FFE79DF818009C
:104C400000F040010020B0EB911F04D0FFE707986F
:104C5000016C8847F0E09DF8140000F0020100208C
:104C6000B0EB510F0BD0FFE79DF818100020B0EB10
:104C7000D11F04D0FFE70798416C8847DCE09DF81E
:104C8000140000F020010020B0EB511F10D1FFE70D
:104C90009DF8140000F040010020B0EB911F07D1F7
:104CA000FFE79DF81500C007002800F0C580FFE76A
:104CB0009DF8180000F020010020B0EB511F00F01B
:104CC000BB80FFE79DF8140000F040010020B0EB2E
:104CD000911F28D0FFE7079890F85100032813D0C0
:104CE000FFE70799486D40F004004865FFE70020A2
:104CF000049007980068C06804900798006880686E
:104D000004900498FFE70DE0FFE700200390079868
:104D10000068C06803900798006880680390039853
:104D2000FFE789E0FFE79DF8140000F02001002074
:104D3000B0EB511F15D0FFE70799486D40F0010017
:104D40004865FFE70020029007980068806802909D
:104D500007980168086820F0400008600298FFE7A3
:104D6000FFE79DF81500C00778B1FFE70799486D88
:104D700040F008004865FFE70020019007980068B0
:104D8000806801900198FFE7FFE70798406D0028D1
:104D900051D0FFE707980168486820F0E0004860BC
:104DA0000799012081F85100069800F002000228BE
:104DB00005D0FFE79DF81800C007B8B3FFE70798D4
:104DC0000168486820F0030048600798C06CA0B1F3
:104DD000FFE70798C16C49F22510C0F6000008658E
:104DE0000798C06CFDF77EFD30B1FFE70799486D6D
:104DF00040F040004865FFE7FFE70798806CA0B1EE
:104E0000FFE70798816C49F22510C0F6000008659D
:104E10000798806CFDF766FD30B1FFE70799486D94
:104E200040F040004865FFE7FFE703E00798FFF721
:104E3000E9FEFFE7FFE7FFE708B080BD80B584B07B
:104E40000290029820B9FFE701208DF80F0071E071
:104E50000298406A60B9FFE702984068B0F5827F27
:104E600001D1FFE703E002990020C861FFE705E0F8
:104E700002990020086102994861FFE70299002029
:104E80008862029890F8510040B9FFE7029900202B
:104E900081F85000029800F051F8FFE702990220D3
:104EA00081F8510002980168086820F0400008600D
:104EB000029A019211685068D2F808C0D36800F4D1
:104EC00082700CF4044C604403F4006318441369CA
:104ED00003F002031844536903F001031844936973
:104EE00003F400731844D36903F038031844136AB9
:104EF00003F080031843926A02F4005210430860E2
:104F0000029A508B00F004001168526A02F01002FD
:104F10001044486002980168C86920F40060C861C4
:104F2000029900204865029A012182F851108DF8FB
:104F30000F00FFE79DF80F0004B080BD80B58CB076
:104F40000B9000200A9009900890079006900B980B
:104F5000006843F20001C4F20101884240F09780EA
:104F6000FFE7FFE70020059043F64400C4F202008B
:104F7000016841F480510160006800F480500590A0
:104F80000598FFE7FFE70020049043F63000C4F2E5
:104F90000200016841F001010160006800F00100B9
:104FA00004900498FFE7E020069002200790089004
:104FB0000320099005200A900020C4F2020006A9EF
:104FC000FDF786FF40F25C70C2F20000039046F2EB
:104FD0001041C4F2020101604FF0C0614160002144
:104FE0008160C1604FF4806202614FF400624261EF
:104FF0008161C1614FF4803202624162FDF72CFE93
:1050000018B1FFE7FDF7F0FBFFE7FFE70B9840F271
:105010005C71C2F20001C1640B988863FFE740F243
:10502000BC70C2F20000029046F25841C4F2020184
:1050300001604FF0C0614160402181600021C1608A
:105040004FF4806202614FF4006242618161C1618C
:105050004FF4803202624162FDF7FEFD18B1FFE7B6
:10506000FDF7C2FBFFE7FFE70B9840F2BC71C2F20D
:10507000000181640B988863FFE7232001900321DE
:105080000022FEF72DFF0198FEF720FFFFE70CB08E
:1050900080BD000080B582B001900198006843F2A5
:1050A0000001C4F20101884245D1FFE74BF2AE3066
:1050B000C2F20000007801283DD1FFE740F2040071
:1050C000C2F2000007F0CCFC4BF2AC30C2F20000A0
:1050D000017801310170007810282BD1FFE74BF2E5
:1050E000AC31C2F200010020087040F25C10C2F244
:1050F000000040F63851C2F2000110220BF098FE79
:105100004BF2AD30C2F2000001780131017000783D
:1051100004280ED1FFE74BF2AD31C2F200010020AE
:1051200008704BF2B430C2F2000000680CF08AF84C
:10513000FFE7FFE7FFE702B080BD000080B588B061
:1051400006900591ADF81220039300208DF807001A
:10515000FFE7069890F85000012804D1FFE70220ED
:105160008DF81F0028E10699012081F85000FFE723
:10517000FFE7FEF777F80290BDF81200ADF80400E3
:10518000069890F85100012804D0FFE702208DF81E
:10519000070002E1059820B1FFE7BDF8120020B931
:1051A000FFE701208DF80700F7E00699032081F85A
:1051B00051000699002048650599069A1163BDF8CB
:1051C0001210069A9186BDF81210069AD186069999
:1051D0008863069988870699C8870699486406995E
:1051E000086406988068B0F5004F0DD1FFE7069877
:1051F0000168086820F040000860069801680868A7
:1052000040F480400860FFE706980068006800F0FE
:105210004000402807D0FFE706980168086840F082
:1052200040000860FFE70698C068B0F5006F47D1FE
:10523000FFE70698406828B1FFE7BDF804000128A1
:105240000ED1FFE706980168006B0088C8600699D8
:10525000086B023008630699C88E0138C886FFE7DC
:10526000FFE70698C08E50B3FFE706980068806895
:10527000800700280ED5FFE706980168006B0088BC
:10528000C8600699086B023008630699C88E013819
:10529000C88613E0FDF7E6FF0299401A0399884299
:1052A00004D3FFE70398013018B9FFE7039820B94A
:1052B000FFE703208DF807006FE0FFE7D1E746E046
:1052C0000698406828B1FFE7BDF8040001280ED118
:1052D000FFE706980168006B007808730699086B71
:1052E000013008630699C88E0138C886FFE7FFE7DA
:1052F0000698C08E50B3FFE7069800688068800764
:1053000000280ED5FFE706980168006B0078087347
:105310000699086B013008630699C88E0138C88663
:1053200013E0FDF79FFF0299401A0399884204D3C6
:10533000FFE70398013018B9FFE7039820B9FFE7AA
:1053400003208DF8070028E0FFE7D1E7FFE7069884
:105350000399029A03F0CAFF20B1FFE706992020C3
:105360004865FFE70698806870B9FFE7FFE700200F
:10537000009006980068C0680090069800688068F1
:1053800000900098FFE7FFE70698406D20B1FFE727
:1053900001208DF80700FFE7FFE70699012081F85B
:1053A0005100FFE70699002081F85000FFE79DF8C3
:1053B00007008DF81F00FFE79DF81F0008B080BDB3
:1053C00080B58EB0DDF840C00C900B910A92ADF81C
:1053D00026300120059000208DF81300FFE70C987F
:1053E00090F85000012804D1FFE702208DF8370023
:1053F00095E10C99012081F85000FFE7FFE7FDF7E8
:1054000031FF06900C9890F851008DF81F000C9811
:1054100040680890BDF82600ADF824009DF81F00F4
:10542000012812D0FFE70898B0F5827F09D1FFE785
:105430000C98806828B9FFE79DF81F00042804D065
:10544000FFE702208DF813005AE10B9838B1FFE70F
:105450000A9820B1FFE7BDF8260020B9FFE7012038
:105460008DF813004CE10C9890F85100042805D0F9
:10547000FFE70C99052081F85100FFE70C99002007
:1054800048650A990C9A9163BDF826100C9AD18749
:10549000BDF826100C9A91870B990C9A1163BDF8F0
:1054A00026100C9AD186BDF826100C9A91860C997C
:1054B00008640C9948640C980068006800F040008B
:1054C000402807D0FFE70C980168086840F04000CA
:1054D0000860FFE70C98C068B0F5006F76D1FFE771
:1054E0000C98406828B1FFE7BDF8240001280ED1D0
:1054F000FFE70C980168006B0088C8600C99086B86
:10550000023008630C99C88E0138C886FFE7FFE7B0
:105510000C98C18E0120029039B9FFE70C98C08F1A
:10552000002818BF01200290FFE70298C00700285A
:105530004BD0FFE70C98006880688007002818D5DA
:10554000FFE70C98C08EA0B1FFE70598012810D1A5
:10555000FFE70C980168006B0088C8600C99086B25
:10556000023008630C99C88E0138C8860020059067
:10557000FFE70C9800688068C007A8B1FFE70C98A7
:10558000C08F88B1FFE70C980068C0680C99896BE0
:1055900008800C99886B023088630C99C88F013899
:1055A000C88701200590FFE7FDF75CFE0699401AC9
:1055B0001099884208D3FFE71098013020B1FFE727
:1055C00003208DF813009BE0A2E778E00C98406878
:1055D00028B1FFE7BDF8240001280ED1FFE70C98A1
:1055E0000168006B007808730C99086B0130086340
:1055F0000C99C88E0138C886FFE7FFE70C98C18E6A
:105600000120019039B9FFE70C98C08F002818BF1E
:1056100001200190FFE70198C00700284ED0FFE766
:105620000C98006880688007002818D5FFE70C9860
:10563000C08EA0B1FFE70598012810D1FFE70C98B4
:105640000168006B007808730C99086B01300863DF
:105650000C99C88E0138C88600200590FFE70C9889
:1056600000688068C007A8B1FFE70C98C08F88B1B8
:10567000FFE70C980068C0680C99896B08700C995A
:10568000886B013088630C99C88F0138C887012066
:105690000590FFE7FDF7E6FD0699401A109988424C
:1056A00004D3FFE71098013018B9FFE7109820B92C
:1056B000FFE703208DF8130022E09FE7FFE70C9837
:1056C0001099069A03F012FE38B1FFE701208DF819
:1056D00013000C992020486512E00C98806870B97E
:1056E000FFE7FFE7002003900C980068C068039074
:1056F0000C980068806803900398FFE7FFE7FFE7D6
:105700000C99012081F85100FFE70C99002081F8E5
:105710005000FFE79DF813008DF83700FFE79DF874
:1057200037000EB080BD000087B005900491039251
:10573000ADF80A3000208DF80200FFE7059890F8D8
:105740005000012804D1FFE702208DF81B0095E0EE
:105750000599012081F85000FFE7FFE7059890F8D0
:1057600051008DF803000598406801909DF80300F2
:10577000012812D0FFE70198B0F5827F09D1FFE739
:105780000598806828B9FFE79DF80300042804D035
:10579000FFE702208DF8020065E0049838B1FFE7CA
:1057A000039820B1FFE7BDF80A0020B9FFE7012008
:1057B0008DF8020057E0059890F85100042805D0B4
:1057C000FFE70599052081F85100FFE705990020C2
:1057D0004865049805990863BDF80A00059988860C
:1057E000BDF80A000599C886039805998863BDF835
:1057F0000A0005998887BDF80A000599C8870598A9
:10580000C06868B1FFE7059948F64960C0F6000036
:105810000864059948F6E160C0F6000048640CE0B1
:10582000059948F69560C0F600000864059948F6A9
:105830002D70C0F600004864FFE7059801684868CD
:1058400040F0E000486005980068006800F0400003
:10585000402807D0FFE705980168086840F040003D
:105860000860FFE7FFE7FFE70599002081F8500097
:10587000FFE79DF802008DF81B00FFE79DF81B0075
:1058800007B0704780B582B001900198006843F27C
:105890000001C4F20101884245D1FFE74BF2AE306E
:1058A000C2F20000007801283DD1FFE740F2040079
:1058B000C2F2000007F0D4F84BF2AC30C2F20000A4
:1058C000017801310170007810282BD1FFE74BF2ED
:1058D000AC31C2F200010020087040F25C10C2F24C
:1058E000000040F63851C2F2000110220BF0A0FA7D
:1058F0004BF2AD30C2F20000017801310170007846
:1059000004280ED1FFE74BF2AD31C2F200010020B6
:1059100008704BF2B430C2F2000000680BF092FC49
:10592000FFE7FFE7FFE702B080BD000080B582B06F
:105930000190019803F0C2FD02B080BD81B00090DB
:1059400001B0704781B0009001B0704785B00390FE
:105950000291FFE7039890F83C00012804D1FFE78B
:1059600002208DF813006CE00399012081F83C00BF
:10597000FFE7FFE70399022081F83D0003980068E4
:10598000406801900398006880680090019820F0BA
:1059900070000190029801680198084301900198F5
:1059A000039909684860039800680021C4F2010166
:1059B00088422AD0FFE703980068B0F1804F24D0D6
:1059C000FFE70398006840F20041C4F200018842FA
:1059D0001BD0FFE70398006840F60001C4F2000105
:1059E000884212D0FFE70398006840F60041C4F2F5
:1059F0000001884209D0FFE70398006844F20001E3
:105A0000C4F2010188420ED1FFE7009820F0800027
:105A1000009002984168009808430090009803990C
:105A200009688860FFE70399012081F83D00FFE7DE
:105A30000399002081F83C00FFE700208DF8130057
:105A4000FFE79DF8130005B07047000080B582B0F5
:105A50000090009820B9FFE701208DF807003FE093
:105A6000009890F83D0040B9FFE70099002081F8C8
:105A70003C00009800F038F8FFE70099022081F818
:105A80003D00009951F8040B03F0E2FE009901205B
:105A900081F84600FFE70099012081F83E00009957
:105AA00081F83F00009981F84000009981F8410099
:105AB000FFE7FFE70099012081F84200009981F893
:105AC0004300009981F84400009981F84500FFE700
:105AD0000099012081F83D0000208DF80700FFE7C4
