:020000040800F2
:10000000A0B3002001030008DD4000088D020008B5
:10001000D9400008AD080008F94F000800000000B2
:1000200000000000000000000000000013030008B2
:100030008D0A000800000000DB010008E102000852
:100040001B0300081B0300081B0300081B03000818
:100050001B0300081B0300081B0300081B03000808
:100060001B0300081B0300081B0300081B030008F8
:100070001B0300081B0300081B0300081B030008E8
:10008000B1080008C10800081B03000800000000B8
:100090000000000000000000000000001B0300083A
:1000A0001B030008454600081B0300081B0300084B
:1000B0001B0300081B0300081B0300081B030008A8
:1000C0001B0300081B0300081B0300084541000830
:1000D0001B030008A14F00081B03000800000000DC
:1000E0001B0300081B0300081B030008000000009E
:1000F0000000000000000000000000001B030008DA
:10010000000000001B0300081B0300081B0300087D
:1001100000000000000000000000000000000000DF
:10012000D10800081B030008E1080008F1080008D6
:100130001B03000800000000000000000000000099
:100140000000000000000000000000001B03000889
:100150001B0300081B030008010900081B0300081B
:100160001B0300081B030008000000000000000043
:10017000000000000000000000000000000000007F
:10018000000000001B030008000000000000000049
:100190001B030008DFF810D000F0F0F800F056F96B
:1001A00000480047A1080008A0B30020EFF310802A
:1001B00072B6704780F310887047424A1368012B6B
:1001C00004D04FF0010313603F4A10603F4A1160B2
:1001D0003F484FF0805101607047EFF3108272B6D4
:1001E0003848016851B34FF000010160364801689A
:1001F00091B1EFF309811EF0100F08BF21ED108BB4
:1002000021E9F00F4FF000041EF0100F08BF012489
:1002100041F8044D006801602C490968096808C963
:10022000B1E8F00F002B18BFB1EC108B81F30988F7
:100230004EF0100E002B18BF2EF0100E82F3108817
:100240004EF0040E704721490860EFF3148222F04B
:10025000040282F314881C494FF000000860194919
:100260004FF0010008601B481B49D0F8002041EA0C
:100270000201016016484FF0805101601748006884
:10028000006880F3088861B662B670471EF0040FFC
:100290000CBFEFF30880EFF3098020E9F00F40F87E
:1002A00004ED40F804ED1EF0040F0CBF80F3088845
:1002B00080F3098800B508F0EBF85DF804EB4EF028
:1002C000040E704704A60020FCA5002000A6002014
:1002D00004ED00E020ED00E00000FFFF08ED00E08D
:1002E00030B410B50348804730BCAE4630BC02483D
:1002F000004700001DCA00084144000800BF7047C5
:100300000648804706480047FEE7FEE7FEE7FEE7AF
:10031000FEE7FEE7FEE7FEE7FEE7FEE73146000800
:1003200095010008421E12F8013F002BFBD111F885
:10033000013B02F8013B002BF9D17047421C10F839
:10034000011B0029FBD1801A7047034611F8012BCD
:1003500000F8012B002AF9D11846704730B5054640
:100360000020034600E05B1C934205D2EC5CC85CB5
:10037000201A01D1002CF6D130BD0000064C074DEB
:1003800006E0E06840F0010394E807009847103465
:10039000AC42F6D3FFF702FF80E40008A0E40008B7
:1003A0002DE9F05F0546002092469B4688460646AA
:1003B000814640241BE0284641464746224600F03D
:1003C000F0F953465A46C01A914110D311461846C7
:1003D000224600F0D7F92D1A67EB01084F46224656
:1003E0000120002100F0CEF917EB00094E41201E3C
:1003F000A4F10104DFDC484631462A464346BDE805
:10040000F09F40EA01039B0703D009E008C9121FCF
:1004100008C0042AFAD203E011F8013B00F8013BBE
:10042000521EF9D27047D2B201E000F8012B491EEA
:10043000FBD270470022F6E710B513460A46044681
:100440001946FFF7F0FF204610BD000070B5054CBF
:10045000054D04E02046016808448047241DAC4255
:10046000F8D170BDA0E40008A4E400082DE9FE4F17
:10047000804681EA0300C00F0C46009021F0004145
:1004800023F00045B8EB0200A94105D240462146C1
:1004900090461C460B46024623F00040104347D0CE
:1004A000270DC7F30A00C3F30A510290401A0190C6
:1004B00040286BDAC3F3130040F4801B0098924687
:1004C00020B10023D2EB030A63EB0B0B01985946D2
:1004D000C0F14002504600F055F906460D46504620
:1004E0005946019A00F06DF910EB080061410024B3
:1004F00087EA115284EAE7731A4340D0009A62B344
:10050000019A012A4FEA075215DC001B61EB020138
:100510004FF0004202EA0752CDE90042001C41F5CB
:10052000801132462B4600F06DF903B0BDE8F08F24
:1005300040462146F9E7001B61EB0201001C41F532
:10054000801300185B412018A2F5001747EB030148
:1005500040EAD570B6196D4111E06D084FEA3606D4
:1005600045EAC0754FEA0752001B61EB0201001C0F
:1005700041F5801149084FEA3000001951413246D7
:100580002B4603B0BDE8F04F00F02DB900980122D2
:1005900040000023D0EB020263EBE0730098214699
:1005A0004FEAE074B8EB000061EB0401E9E783F087
:1005B00000435BE781F0004158E72DE9FE4F81EAF7
:1005C000030404F0004421F0004100944FF0000BBC
:1005D00023F0004350EA01045ED052EA03045BD0EA
:1005E000C3F30A54C1F30A552C44A4F2F334019422
:1005F000A0FB0254C1F3130141F48011C3F31303B0
:1006000043F4801301FB024400FB034E840A970A63
:1006100044EA815447EA8357A4FB076802958D0A90
:1006200005FB07854FEA932C04FB0C542705029D1C
:100630004FEA065847EA1637B5EB08056EEB070C8C
:10064000870E920E47EA811742EA8312A7FB020146
:10065000B6EB0B0164EB00042B0D43EA0C335E1880
:1006600044EB1C50DA465146E7FB0201C5F3130484
:100670004FEA0B3343EA14534FEA0432019C43EA36
:100680000603A4F10C040294009CCDE900B400F030
:10069000B9F803B0BDE8F08F00200146F9E730B5A6
:1006A000041E71F1000404DB4FF00044404264EB8F
:1006B0000101141E73F1000405DB1C464FF00043DA
:1006C000524263EB0403801A994101D3012030BDEB
:1006D000002030BD30B5041E71F1000404DB4FF082
:1006E0000044404264EB0101141E73F1000405DB79
:1006F0001C464FF00043524263EB0403101A8B4137
:1007000001D3012030BD002030BD0EB5C10F80EAFD
:10071000E0700844CA07002140F233438DE80E0020
:100720000A460B4600F06EF803B000BD0EB540F26D
:10073000334102910021CDE900110A460B4600F039
:1007400061F803B000BD70B5C1F30A5201F0004575
:100750000024C1F3130140F2FF3341F480119A42A7
:1007600001DA002070BD40F233439A42A2F23342D4
:1007700003DC524200F015F800E090402C43F1D029
:10078000404270BD202A04DB203A00FA02F100202A
:1007900070479140C2F1200320FA03F319439040BF
:1007A0007047202A04DB203A21FA02F0002170472A
:1007B00021FA02F3D040C2F12002914008431946C9
:1007C0007047202A06DBCB17203A41FA02F043EAB1
:1007D000E07306E041FA02F3D040C2F120029140FA
:1007E00008431946704710B5141E73F1000408DA67
:1007F000401C41F1000192185B411A4301D120F0E5
:10080000010010BD2DE9F04D92469B4611B1B1FAA1
:1008100081F202E0B0FA80F220329046FFF7B2FF98
:1008200004460F4640EA0A0041EA0B0153465A4685
:10083000084313D0114653EA010019D0C8F1400211
:100840005046FFF7AEFF05460E4650465946424613
:10085000FFF798FF084305D0012004E02046394601
:10086000BDE8F08D0020054346EAE0762C4337438F
:100870000A986305E40AA0EB08000022FD0A44EA96
:1008800047540A3002D500200146E9E70105101956
:100890006941DDE9084500196941BDE8F04DA2E76D
:1008A00080B50BF01BFB002080BD0000FFE7FEE7DA
:1008B00080B540F23840C2F2000000F07BF980BD04
:1008C00080B540F29C40C2F2000000F073F980BD98
:1008D00080B540F27030C2F2000000F06BF980BDCC
:1008E00080B540F20820C2F2000000F063F980BD3C
:1008F00080B540F2D430C2F2000000F05BF980BD58
:1009000080B540F2A410C2F2000000F053F980BD9F
:1009100082B001900198007810384AF6AB21CAF6EF
:10092000AA21A0FB01010809009000984CF69C4107
:10093000C0F60001085C019908660098042807D3F6
:10094000FFE701980168042262F30901C16506E02E
:100950000198016840F2FF329143C165FFE70198B9
:10096000C06D02B07047000083B00290002001907B
:100970000298806A009002988069F0B9FFE70098B9
:10098000032818D8DFE800F0020C0216029890F84D
:100990002F00C00718B1FFE701200190FFE70BE02F
:1009A0000298C06AB0F1C07F03D1FFE70120019037
:1009B000FFE701E000E0FFE73CE002988069B0F566
:1009C000005F20D1FFE7009803281AD8DFE800F085
:1009D0000205020F0120019014E0029890F82F0008
:1009E000C00718B1FFE701200190FFE70AE0029875
:1009F000C06AB0F1C07F03D1FFE701200190FFE79B
:100A000000E0FFE715E00098032803D3FFE7032881
:100A100003D00CE0012001900AE0029890F82F002A
:100A2000C00718B1FFE701200190FFE700E0FFE7F2
:100A3000FFE7FFE7019803B07047000084B0039020
:100A400002910192009303980068016821F48021CB
:100A500001600098039909684860039880684028FD
:100A600009D1FFE701980399096888600298039902
:100A70000968C86008E002980399096888600198CD
:100A800003990968C860FFE704B070477047000029
:100A900081B0EFF3108072B60090FFE7FEE7000030
:100AA00080B584B002900298C06D019000F0ECFC1B
:100AB00000900298806B02280BD0FFE702988021FB
:100AC0008165FFE7029800214163FFE70120039061
:100AD00050E002980068016821F016010160029858
:100AE0000068416921F0800141610298406C20B9A1
:100AF000FFE70298C06C38B1FFE702980068016810
:100B000021F008010160FFE702980068016821F008
:100B100001010160FFE7029800680068C007B0B1FA
:100B2000FFE700F0B1FC0099401A06280ED3FFE75A
:100B3000029820218165029803218163FFE70298D2
:100B400000214163FFE70320039013E0E3E70298ED
:100B5000006E3F2101FA00F001998860029801219E
:100B60008163FFE7029800214163FFE7FFE7002070
:100B70000390FFE704B080BD82B000900098806BC6
:100B8000022806D0FFE700988021816501200190AE
:100B90000CE000980521816300980068016821F04D
:100BA00001010160FFE700200190FFE7019802B01A
:100BB0007047000080B586B005900020039040F299
:100BC0000000C2F20000006848F2B511C1F64E31D3
:100BD000A0FB0101880A02900598C06D0190019860
:100BE0000068049004980599096EC8400007002821
:100BF0001BD5FFE70598006800684007002813D55B
:100C0000FFE705980068016821F00401016005987C
:100C1000006E082101FA00F0019988600598816D45
:100C200041F001018165FFE7FFE704980599096E2E
:100C3000C840C007A8B1FFE70598006840690006F2
:100C400000280DD5FFE70598006E012101FA00F09C
:100C5000019988600598816D41F002018165FFE787
:100C6000FFE704980599096EC8404007002815D58C
:100C7000FFE7059800680068800700280DD5FFE7AA
:100C80000598006E042101FA00F00199886005982A
:100C9000816D41F004018165FFE7FFE70498059944
:100CA000096EC840C006002848D5FFE705980068CF
:100CB00000680007002840D5FFE70598006E102166
:100CC00001FA00F001998860059800680068400307
:100CD00000281AD5FFE7059800680068000300287F
:100CE00009D4FFE70598406C20B1FFE70598416CF7
:100CF0008847FFE708E00598C06C20B1FFE705983A
:100D0000C16C8847FFE7FFE716E0059800680068B8
:100D1000C005002807D4FFE705980068016821F0A6
:100D200008010160FFE70598406C20B1FFE70598D6
:100D3000416C8847FFE7FFE7FFE7FFE70498059965
:100D4000096EC8408006002840F18A80FFE70598B8
:100D500000680068C006002840F18180FFE7059820
:100D6000006E202101FA00F0019988600598806BDF
:100D7000052833D1FFE705980068016821F01601C6
:100D8000016005980068416921F080014161059882
:100D9000406C20B9FFE70598C06C38B1FFE70598B3
:100DA0000068016821F008010160FFE70598006E06
:100DB0003F2101FA00F001998860059801218163C3
:100DC000FFE7059800214163FFE70598406D20B1DA
:100DD000FFE70598416D8847FFE777E005980068D1
:100DE0000068400300281AD5FFE7059800680068EE
:100DF0000003002809D4FFE70598806C20B1FFE7C5
:100E00000598816C8847FFE708E00598006C20B1E1
:100E1000FFE70598016C8847FFE7FFE71EE00598AC
:100E200000680068C00500280FD4FFE70598006837
:100E3000016821F010010160059801218163FFE73D
:100E4000059800214163FFE7FFE70598006C20B19A
:100E5000FFE70598016C8847FFE7FFE7FFE7FFE73B
:100E60000598806D90B3FFE70598806DC00720B3AB
:100E7000FFE705980521816305980068016821F066
:100E800001010160FFE70398013003900299884255
:100E900001D9FFE708E0FFE7059800680068C00790
:100EA0000028F0D1FFE7FFE7059801218163FFE704
:100EB000059800214163FFE7FFE70598006D20B129
:100EC000FFE70598016D8847FFE7FFE706B080BDA3
:100ED00080B586B004900020039000F0D5FA02900F
:100EE000049818B9FFE7012005909BE00498406A38
:100EF00008B1FFE7FFE7049802218163FFE7049848
:100F000000214163FFE704980068016821F00101B6
:100F10000160FFE7049800680068C00780B1FFE740
:100F200000F0B2FA0299401A062808D3FFE70498A5
:100F300020218165049803218163059172E0E9E72E
:100F40000498006800680390039848F23F01CFF2CC
:100F50001001084003900498D0F804C08268C36868
:100F6000016942EA0C021A43114342691143826942
:100F70001143C2691143006A08430399084303906F
:100F80000498406A042808D1FFE70498C16A006BFE
:100F90000843039908430390FFE7039804990968FD
:100FA00008600498006840690390039820F00700E7
:100FB00003900498406A0399084303900498406A98
:100FC000042818D1FFE70498806A03990843039026
:100FD0000498C06A70B1FFE70498FFF7C5FC40B100
:100FE000FFE7049840218165049801218163059100
:100FF00018E0FFE7FFE7039804990968486104983F
:10100000FFF786FC01900498006E3F2101FA00F082
:101010000199886004980021816504980122826307
:101020000591FFE7059806B080BD000080B588B047
:101030000690059104920393002002900698C06DDB
:101040000190FFE70698406B012803D1FFE70220DB
:1010500007903FE0069801214163FFE7FFE706980C
:10106000806B01282BD1FFE7069802218163069847
:101070000021816506980599049A039BFFF7DEFC21
:101080000698006E3F2101FA00F0019988600698E9
:101090000068016841F0160101600698406C38B1A3
:1010A000FFE706980068016841F008010160FFE76A
:1010B00006980068016841F00101016007E0FFE760
:1010C000069800214163FFE702200290FFE70298A3
:1010D0000790FFE708B080BD87B00690059100201B
:1010E0000390029001900490FFE704980F2800F20B
:1010F0009B81FFE70498012101FA00F00390059815
:10110000006803990840029002980399884240F0D1
:101110008681FFE70598406800F00300012807D0AA
:10112000FFE70598406800F0030002282FD1FFE791
:1011300006988068019004984000032101FA00F0AD
:10114000019921EA000001900598C06804994900BE
:101150008840019908430190019806998860069893
:10116000406801900498012101FA00F0019921EAF8
:101170000000019005984068C0F300100499884071
:10118000019908430190019806994860FFE7059886
:10119000406800F00300032818D0FFE70698C068F5
:1011A000019004984000032101FA00F0019921EA1E
:1011B00000000190059880680499490088400199D1
:1011C0000843019001980699C860FFE705984068B8
:1011D00000F00300022826D1FFE7069804996FF07B
:1011E000030202EA51010844006A0190049800F0E9
:1011F000070080000F2101FA00F0019921EA0000A8
:10120000019005980069049901F007018900884060
:1012100001990843019001980699049B02EA530240
:1012200011440862FFE706980068019004984000A6
:10123000032101FA00F0019921EA000001900598CC
:10124000406800F003000499490088400199084370
:101250000190019806990860059880798007002818
:1012600000F0DC80FFE7FFE70020009043F6440039
:10127000C4F20200016841F480410160006800F49A
:10128000804000900098FFE7049820F0030043F6A8
:101290000801C4F2010140580190049800F00300D5
:1012A00080000F2101FA00F0019921EA000001906D
:1012B00006980021C4F20201884202D1FFE7002013
:1012C0002AE0069840F20041C4F20201884202D1AD
:1012D000FFE701201FE0069840F60001C4F202017A
:1012E000884202D1FFE7022014E0069840F6004150
:1012F000C4F20201884202D1FFE7032009E0069907
:1013000041F20002C4F202020720914208BF042009
:10131000FFE7FFE7FFE7FFE7C0B2049901F0030131
:10132000890088400199084301900198049921F0AF
:10133000030143F60802C4F20102885043F600405C
:10134000C4F20100006801900298019921EA0000AE
:10135000019005988079C00728B1FFE702980199AC
:1013600008430190FFE7019843F60041C4F20101F0
:10137000086043F60440C4F201000068019002983E
:10138000019921EA000001900598807980070028E2
:1013900005D5FFE70298019908430190FFE70198FE
:1013A00043F60441C4F20101086043F60840C4F268
:1013B0000100006801900298019921EA0000019063
:1013C00005988079C006002805D5FFE702980199A5
:1013D00008430190FFE7019843F60841C4F2010178
:1013E000086043F60C40C4F20100006801900298C6
:1013F000019921EA00000190059880798006002873
:1014000005D5FFE70298019908430190FFE701988D
:1014100043F60C41C4F201010860FFE7FFE7FFE774
:1014200004980130049060E607B0704783B0002054
:10143000C4F2020002900420ADF806000298006990
:10144000BDF80610084203D0FFE70120009002E03B
:1014500000200090FFE7009803B0704783B002902F
:10146000ADF806100092009828B1FFE7BDF806001D
:101470000299886105E0BDF80600000402998861C0
:10148000FFE703B07047000040F26850C2F200006E
:101490000068704780B584B040F2B820C2F2000006
:1014A0000290029818B9FFE70120039023E1029807
:1014B000006C38B9FFE702980021C163029800F080
:1014C0001DF9FFE702982421016402980068016871
:1014D00021F00101016002980068016841F40041B7
:1014E000016002980068016821F40041016000F089
:1014F00061FB00900298406848F2A061C0F20101CF
:1015000088420AD8FFE7009948F28042C0F21E02E2
:101510000020914238BF012009E0009940F60012F6
:10152000C0F23D020020914238BF0120FFE70128B0
:1015300003D1FFE701200390DDE000984DF68361C1
:10154000C4F21B31A0FB0101880C019002980068D5
:10155000406820F03F0001990843029909684860FB
:1015600002980068006A20F03F000299496848F23A
:10157000A062C0F20102914203D8FFE70199013154
:101580000DE001994FF49672514344F6D352C1F2E3
:101590006202A1FB0212012101EB9211FFE7084355
:1015A00002990968086202980068C0694CF6FF71E8
:1015B00088430299496848F2A062C0F20102914250
:1015C0001BD8FFE700990139029A52685200B1FB1B
:1015D000F2F101316FF31F31032902D8FFE7042133
:1015E0000AE000990139029A52685200B1FBF2F107
:1015F00001316FF31F31FFE742E00299896861B959
:10160000FFE700990139029A526802EB4202B1FBEE
:10161000F2F101316FF31F310CE000990139029AA8
:10162000526819235A43B1FBF2F10131042262F3EB
:101630001F31FFE7090511B9FFE701211FE00299FA
:10164000896861B9FFE700990139029A526802EB93
:101650004202B1FBF2F101316FF31F310CE000994E
:101660000139029A526819235A43B1FBF2F1013150
:10167000042262F31F31FFE741F40041FFE7FFE777
:10168000084302990968C86102980068006820F060
:10169000C00002990A68CB69096A194308431060BF
:1016A00002980068806848F2FF31884302990A680E
:1016B000CB68096919430843906002980068C068C4
:1016C00020F0FF0002990A684B69896919430843B1
:1016D000D06002980068016841F001010160029841
:1016E000002181640298202202640298016302981A
:1016F00041640391FFE7039804B080BD80B588B0D2
:10170000079000200690059004900390029007989F
:10171000006845F20041C4F20001884234D1FFE77D
:10172000FFE70020019043F63000C4F20200016898
:1017300041F002010160006800F002000190019890
:10174000FFE7C020029012200390002004900320A5
:1017500005900420069040F20040C4F2020002A965
:10176000FFF7BAFCFFE70020009043F64000C4F208
:101770000200016841F400110160006800F40010EB
:1017800000900098FFE7FFE708B080BD40F2685086
:10179000C2F20000016801310160704780B543F674
:1017A0000040C4F20200016841F400710160016868
:1017B00041F480610160016841F48071016000F0D2
:1017C00099F80F2000F004F800F050F880BD0000F8
:1017D00080B58CB00A900020049003900A991920DB
:1017E00000F072F8192000F067F8FFE70020019080
:1017F00043F64400C4F20200016841F001010160B7
:10180000006800F0010001900198FFE705A802A917
:1018100000F0A0F900F0E0F9049004984DF683611F
:10182000C4F21B31A0FB01014FF0FF3000EB9140EF
:10183000039040F20050C2F200000021C4F2010106
:10184000016040F2E731C16003994160002101610C
:10185000816001F0AFFB20B9FFE701F0F1FB0B90D5
:1018600002E001200B90FFE70CB080BD82B0FFE7E3
:101870000020019043F64400C4F20200016841F4E4
:1018800080410160006800F4804001900198FFE70A
:10189000FFE70020009043F64000C4F20200016818
:1018A00041F080510160006800F080500090009885
:1018B000FFE702B07047000080B582B00190019848
:1018C00003F09CFB02B080BD10B584B00390029180
:1018D00000200190009003F0A7FB0090039C00986B
:1018E0000299019A02F0FCFB0146204603F0A4FB9A
:1018F00004B010BD80B582B003200190019803F0C0
:10190000B9FB02B080BD000080B584B00290022017
:101910000190029818B9FFE70120039016E10198A1
:1019200043F60041C4F20201096801F00701884250
:1019300011D9FFE7019843F60041C4F20201087093
:10194000086800F007000199884203D0FFE70120F2
:101950000390FBE0FFE702980078800700282AD573
:10196000FFE7029800784007002809D5FFE743F613
:101970000800C4F20200016841F4E0510160FFE791
:10198000029800780007002809D5FFE743F6080011
:10199000C4F20200016841F460410160FFE743F6D0
:1019A0000800C4F20200016821F0F001029A926876
:1019B00011430160FFE702980078C00700286AD051
:1019C000FFE702984068012810D1FFE743F60000C6
:1019D000C4F20200006800F400300021B1EB504F67
:1019E00003D1FFE701200390B0E02AE002984068AD
:1019F000022805D0FFE702984068032810D1FFE7CE
:101A000043F60000C4F20200006800F000700021FC
:101A1000B1EB506F03D1FFE70120039096E00FE098
:101A200043F60000C4F20200006800F0020000214A
:101A3000B1EB500F03D1FFE70120039086E0FFE7F1
:101A4000FFE743F60800C4F20200016821F0030139
:101A5000029A526811430160FFF716FD0090FFE7FC
:101A600043F60800C4F20200006800F00C0002997E
:101A70004968B0EB810F0DD0FFE7FFF705FD009936
:101A8000401A41F28931884203D3FFE703200390D3
:101A90005CE0E5E7FFE7019843F60041C4F202018C
:101AA000096801F00701884211D2FFE7019843F667
:101AB0000041C4F202010870086800F007000199B3
:101AC000884203D0FFE7012003903FE0FFE7029840
:101AD0000078400700280CD5FFE743F60800C4F261
:101AE0000200016821F4E051029AD26811430160BA
:101AF000FFE702980078000700280DD5FFE743F6BE
:101B00000800C4F20200016821F46041029A1269DF
:101B100041EAC2010160FFE700F070F843F60801F6
:101B2000C4F202010968C9B209094CF68442C0F640
:101B30000002515CC84040F20001C2F2000108609E
:101B40001020FFF745FE00200390FFE7039804B044
:101B500080BD000082B00190009101980F210160CA
:101B600043F60800C4F20200016801F00301019A83
:101B70005160016801F0F001019A9160016801F47F
:101B8000E051019AD160006800F46040C0080199FA
:101B9000086143F60040C4F20200006800F007004C
:101BA0000099086002B0704740F20000C2F20000E5
:101BB0000068704780B5FFF7F7FF43F60801C4F2ED
:101BC00002010968C1F382214CF69442C0F600027A
:101BD000515CC84080BD000080B5FFF7E5FF43F6CB
:101BE0000801C4F20201096889B2490B4CF694421B
:101BF000C0F60002515CC84080BD000080B584B0D2
:101C00000020039002900190009043F60800C4F277
:101C10000200006800F00C0030B1FFE7042809D092
:101C2000FFE708280CD04FE042F20040C0F2F40079
:101C300000904FE047F64000C0F27D10009049E070
:101C400043F60400C4F20200016801F03F01039171
:101C500000684002002813D5FFE743F60400C4F2F1
:101C600002000068C0F3881047F64001C0F27D1101
:101C7000A0FB0101039A0023FEF792FB029012E001
:101C800043F60400C4F202000068C0F3881042F278
:101C90000041C0F2F401A0FB0101039A0023FEF70A
:101CA0007FFB0290FFE743F60400C4F202000068E5
:101CB00000F44030022101EBD030019002980199EC
:101CC000B0FBF1F0009005E042F20040C0F2F400F9
:101CD0000090FFE7009804B080BD000080B586B09A
:101CE0000490049818B9FFE7012005903CE304989C
:101CF0000078C007002800F0A280FFE743F6080044
:101D0000C4F20200006800F00C00042813D0FFE7C2
:101D100043F60800C4F20200006800F00C00082836
:101D20001DD1FFE743F60400C4F202000068400240
:101D3000002814D5FFE743F60000C4F20200006853
:101D400000F400300021B1EB504F07D0FFE70498BA
:101D5000406818B9FFE70120059005E36EE0FFE752
:101D600004984068B0F5803F09D1FFE743F60000D2
:101D7000C4F20200016841F48031016020E004985F
:101D80004068B0F5A02F0DD1FFE743F60000C4F284
:101D90000200016841F480210160016841F4803152
:101DA00001600CE043F60000C4F20200016821F477
:101DB00080310160016821F480210160FFE7FFE7C5
:101DC000FFE704984068E0B1FFE7FFF75DFB039091
:101DD000FFE743F60000C4F20200006800F40030A0
:101DE0000021B1EB504F0BD1FFE7FFF74DFB0399FB
:101DF000401A652803D3FFE703200590B4E2E8E723
:101E00001BE0FFF741FB0390FFE743F60000C4F23D
:101E10000200006800F400300021B1EB504F0BD0FD
:101E2000FFE7FFF731FB0399401A652803D3FFE76B
:101E30000320059098E2E8E7FFE7FFE7FFE7049853
:101E400000788007002840F19380FFE743F6080000
:101E5000C4F20200006810F00C0F13D0FFE743F645
:101E60000800C4F20200006800F00C0008282BD122
:101E7000FFE743F60400C4F20200006840020028B5
:101E800022D4FFE743F60000C4F20200006800F02D
:101E900002000021B1EB500F08D0FFE70498C068A2
:101EA000012803D0FFE7012005905DE243F6000022
:101EB000C4F20200016821F0F801049A126941EAB3
:101EC000C2010160FFE752E00498C06868B3FFE711
:101ED0000020C4F2472001210160FFF7D5FA0390EA
:101EE000FFE743F60000C4F20200006800F00200C1
:101EF0000021B1EB500F0BD1FFE7FFF7C5FA0399B3
:101F0000401A032803D3FFE7032005902CE2E8E7FB
:101F100043F60000C4F20200016821F0F801049ABF
:101F2000126941EAC201016020E00020C4F24720AA
:101F300000210160FFF7A8FA0390FFE743F60000D5
:101F4000C4F20200006800F002000021B1EB500F63
:101F50000BD0FFE7FFF798FA0399401A032803D341
:101F6000FFE703200590FFE1E8E7FFE7FFE7FFE772
:101F7000049800780007002849D5FFE704984069D5
:101F800010B3FFE740F68060C4F2472001210160F2
:101F9000FFF77AFA0390FFE743F67400C4F20200F9
:101FA000006800F002000021B1EB500F0BD1FFE7F9
:101FB000FFF76AFA0399401A032803D3FFE70320C7
:101FC0000590D1E1E8E721E040F68060C4F24720C7
:101FD00000210160FFF758FA0390FFE743F6740011
:101FE000C4F20200006800F002000021B1EB500FC3
:101FF0000BD0FFE7FFF748FA0399401A032803D3F1
:10200000FFE703200590AFE1E8E7FFE7FFE704986B
:1020100000784007002840F1C880FFE700200190C9
:1020200043F64000C4F202000068C000002814D447
:10203000FFE7FFE70020009043F64000C4F20200F3
:10204000016841F080510160006800F0805000900C
:102050000098FFE701200190FFE747F20000C4F27B
:1020600000000068C005002821D4FFE747F2000007
:10207000C4F20000016841F480710160FFF704FAC6
:102080000390FFE747F20000C4F200000068C005BB
:1020900000280BD4FFE7FFF7F7F90399401A03284C
:1020A00003D3FFE7032005905EE1EBE7FFE7FFE7DF
:1020B00004988068012809D1FFE743F67000C4F254
:1020C0000200016841F0010101601FE0049880688E
:1020D00005280DD1FFE743F67000C4F20200016845
:1020E00041F004010160016841F0010101600CE070
:1020F00043F67000C4F20200016821F001010160A2
:10210000016821F004010160FFE7FFE7FFE70498A1
:102110008068F0B1FFE7FFF7B7F90390FFE743F6F8
:102120007000C4F20200006800F002000021B1EB70
:10213000500F0DD1FFE7FFF7A7F90399401A41F2BD
:102140008931884203D3FFE7032005900CE1E6E7DD
:102150001DE0FFF799F90390FFE743F67000C4F222
:102160000200006800F002000021B1EB500F0DD01A
:10217000FFE7FFF789F90399401A41F28931884254
:1021800003D3FFE703200590EEE0E6E7FFE70198C1
:10219000012809D1FFE743F64000C4F202000168BC
:1021A00021F080510160FFE7FFE704988069002873
:1021B00000F0D780FFE743F60800C4F20200006891
:1021C00000F00C00082800F08280FFE70498806986
:1021D00002285AD1FFE76020C4F2472000210160A5
:1021E000FFF752F90390FFE743F60000C4F2020044
:1021F000006800F000700021B1EB506F0BD0FFE7DA
:10220000FFF742F90399401A032803D3FFE703209D
:102210000590A9E0E8E70498D0F81CC0026A436A78
:10222000816A42EA0C0242EA8312C9034FF6FF7345
:102230009943A1F580311143C06A41EA006043F639
:102240000401C4F2020108606020C4F247200121A9
:102250000160FFF719F90390FFE743F60000C4F2AD
:102260000200006800F000700021B1EB506F0BD14C
:10227000FFE7FFF709F90399401A032803D3FFE7A3
:102280000320059070E0E8E720E06020C4F24720DA
:1022900000210160FFF7F8F80390FFE743F6000024
:1022A000C4F20200006800F000700021B1EB506F32
:1022B0000BD0FFE7FFF7E8F80399401A032803D390
:1022C000FFE7032005904FE0E8E7FFE748E00498C8
:1022D0008069012803D1FFE70120059044E043F61F
:1022E0000400C4F20200006802900498806901288A
:1022F00031D0FFE7029800F480000499C969884250
:1023000029D1FFE7029800F03F000499096A88424A
:1023100021D1FFE7029847F6C07108400499496A45
:10232000B0EB811F17D1FFE7029800F44030049909
:10233000896AC9034FF6FF729143A1F58031884243
:1023400009D1FFE7029800F070600499C96AB0EB08
:10235000016F03D0FFE70120059005E0FFE7FFE7ED
:10236000FFE700200590FFE7059806B080BD00005C
:1023700081B0009001B0704780B588B00790079891
:1023800000684068069007980068806805909DF88E
:10239000140000F040000021B1EB901F11D1FFE7C5
:1023A0000598C00768B1FFE79DF8180000F04000ED
:1023B0000021B1EB901F04D0FFE70798016C88471C
:1023C000EEE09DF8140000F002000021B1EB500F88
:1023D0000BD0FFE79DF818000021B1EBD01F04D00F
:1023E000FFE70798416C8847DAE09DF8140000F099
:1023F00020000021B1EB501F10D1FFE79DF8140021
:1024000000F040000021B1EB901F07D1FFE79DF8DD
:102410001500C007002800F0C380FFE79DF81800F2
:1024200000F020000021B1EB501F00F0B980FFE761
:102430009DF8140000F040000021B1EB901F27D060
:10244000FFE70798406D032813D0FFE70798816DD9
:1024500041F004018165FFE70020049007980068BF
:10246000C068049007980068806804900498FFE7AB
:102470000DE0FFE70020039007980068C068039014
:1024800007980068806803900398FFE788E0FFE7FB
:102490009DF8140000F020000021B1EB501F15D072
:1024A000FFE70798816D41F001018165FFE700209A
:1024B0000290079800688068029007980068016899
:1024C00021F0400101600298FFE7FFE79DF8150049
:1024D000C00778B1FFE70798816D41F00801816579
:1024E000FFE700200190079800688068019001983C
:1024F000FFE7FFE70798806D002850D0FFE70798B7
:102500000068416821F0E0014160079801214165C0
:10251000069800F00200022805D0FFE79DF8180099
:10252000C007B8B3FFE707980068416821F00301CE
:1025300041600798C06CA0B1FFE70798C06C44F2F7
:102540005511C0F6000141650798C06CFEF714FBF9
:1025500030B1FFE70798816D41F040018165FFE7E9
:10256000FFE70798806CA0B1FFE70798806C44F202
:102570005511C0F6000141650798806CFEF7FCFA22
:1025800030B1FFE70798816D41F040018165FFE7B9
:10259000FFE703E00798FFF7EBFEFFE7FFE7FFE742
:1025A00008B080BD80B582B040F21430C2F20000A5
:1025B0000090009818B9FFE7012001906CE00098A6
:1025C000406A60B9FFE700984068B0F5827F01D1AA
:1025D000FFE703E000980021C161FFE705E00098F4
:1025E0000021016100984161FFE7009800218162AC
:1025F0000098406D38B9FFE7009800210165009808
:1026000000F04EF8FFE7009802214165009800684D
:10261000016821F0400101600098D0F800C04268D4
:102620008368C16802F4827203F404431A4401F41B
:1026300000611144026902F002021144426902F091
:1026400001021144826902F400721144C26902F06D
:1026500038021144026A02F080021143806A00F4D9
:1026600000500843CCF800000098418B01F00401B1
:102670000268406A00F0100008445060009800684A
:10268000C16921F40061C161009800218165009851
:10269000012242650191FFE7019802B080BD000070
:1026A00010B588B007900020069005900490039024
:1026B00002900798006843F20001C4F201018842C9
:1026C00040F09180FFE7FFE70020019043F64400CF
:1026D000C4F20200016841F480510160006800F416
:1026E000805001900198FFE7FFE70020009043F63B
:1026F0003000C4F20200016841F00101016000688D
:1027000000F0010000900098FFE7E0200290022016
:1027100003900024049403200590052006900020D7
:10272000C4F2020002A9FEF7D7FC40F27030C2F2F8
:10273000000046F21041C4F2020101604FF0C06196
:1027400041608460C4604FF4806101614FF40061B6
:1027500041618461C4614FF4803101624462FEF7DB
:10276000B7FB10B1FFE7FEF793F9FFE7079840F2D8
:102770007031C2F20001C1640798C863FFE740F2FC
:10278000D430C2F2000046F25841C4F202010160A6
:102790004FF0C0614160402181600021C1604FF471
:1027A000806202614FF4006242618161C1614FF455
:1027B000803202624162FEF78BFB10B1FFE7FEF749
:1027C00067F9FFE7079840F2D431C2F20001816453
:1027D0000798C863FFE723200021FFF775F823203F
:1027E000FFF76AF8FFE708B010BD000080B588B0B9
:1027F000069005910120ADF812004FF47A70039015
:102800000020019006984068B0F5827F12D1FFE762
:102810000698806870B9FFE706980421416506981C
:102820000599BDF81230039A00920A4600F018FA92
:102830000790DFE0FFE70698006D012803D1FFE76E
:1028400002200790D6E0069801210165FFE7FFE727
:10285000FEF71AFE02900698406D012803D0FFE7AC
:1028600002200190BBE0059820B1FFE7BDF81200FF
:1028700018B9FFE701200190B1E0069804214165F5
:102880000698002181650598069A9063BDF81200AC
:10289000069A9087BDF81200069AD08706980163C1
:1028A000069881860698C186069801640698416458
:1028B00006988068B0F5004F0DD1FFE706980068D4
:1028C000016821F04001016006980068016821F468
:1028D00080410160FFE706980068006800F0400052
:1028E000402807D0FFE706980068016841F04001E2
:1028F0000160FFE70698C06878BBFFE7FFE706982E
:10290000C08F48B3FFE7069800688068C00778B1B9
:10291000FFE706980068007B0699896B08700698A7
:10292000816B013181630698C18F0139C18712E043
:10293000FEF7AAFD0299401A0399884204D3FFE7E3
:102940000398013018B9FFE7039818B9FFE703208F
:10295000019044E0FFE7D2E72EE0FFE70698C08F42
:1029600048B3FFE7069800688068C00778B1FFE7C2
:1029700006980068C0680699896B08800698816B84
:10298000023181630698C18F0139C18712E0FEF7D9
:102990007BFD0299401A0399884204D3FFE703980C
:1029A000013018B9FFE7039818B9FFE70320019039
:1029B00015E0FFE7D2E7FFE706980399029A01F0D6
:1029C000D9FB20B1FFE7069820218165FFE7069833
:1029D000806D18B1FFE701200190FFE7FFE706983F
:1029E00001214165FFE7069800210165FFE7019895
:1029F0000790FFE708B080BD80B58AB008900791C6
:102A00000120ADF81A004FF47A7005900020039071
:102A1000FFE70898006D012803D1FFE70220099025
:102A20001CE1089801210165FFE7FFE7FEF72CFD97
:102A30000490BDF81A00ADF80A000898406D01280E
:102A400003D0FFE702200390FDE0079820B1FFE7E5
:102A5000BDF81A0018B9FFE701200390F3E00898C9
:102A6000032141650898002181650798089A106341
:102A7000BDF81A00089A9086BDF81A00089AD08608
:102A800008988163089881870898C18708984164ED
:102A90000898016408988068B0F5004F0DD1FFE7F1
:102AA00008980068016821F04001016008980068FA
:102AB000016841F480410160FFE708980068006800
:102AC00000F04000402807D0FFE708980068016840
:102AD00041F040010160FFE70898C068B0F5006F61
:102AE00046D1FFE70898406828B1FFE7BDF80A0023
:102AF00001280ED1FFE708980168006B0088C860C4
:102B00000898016B023101630898C18E0139C186B2
:102B1000FFE7FFE70898C08E48B3FFE70898006812
:102B20008068800700280ED5FFE708980168006BD1
:102B30000088C8600898016B023101630898C18E53
:102B40000139C18612E0FEF79FFC0499401A0599ED
:102B5000884204D3FFE70598013018B9FFE70598CC
:102B600018B9FFE7032003906DE0FFE7D2E745E0E7
:102B70000898406828B1FFE7BDF80A0001280ED187
:102B8000FFE708980168006B007808730898016BEC
:102B9000013101630898C18E0139C186FFE7FFE763
:102BA0000898C08E48B3FFE70898006880688007DF
:102BB00000280ED5FFE708980168006B00780873BD
:102BC0000898016B013101630898C18E0139C186F3
:102BD00012E0FEF759FC0499401A0599884204D383
:102BE000FFE70598013018B9FFE7059818B9FFE726
:102BF0000320039027E0FFE7D2E7FFE70898059955
:102C0000049A01F01BFB20B1FFE7089820218165A1
:102C1000FFE70898806870B9FFE7FFE700200190A0
:102C200008980068C0680190089800688068019062
:102C30000198FFE7FFE70898806D18B1FFE70120D2
:102C40000390FFE7FFE7089801214165FFE7089837
:102C500000210165FFE703980990FFE70AB080BDF6
:102C600080B58CB0DDF838C00A9009910892ADF8B3
:102C70001E300120039000200290FFE70A98006DAB
:102C8000012803D1FFE702200B907FE10A98012180
:102C90000165FFE7FFE7FEF7F7FB04900A98406D38
:102CA00005900A9840680690BDF81E00ADF81C001B
:102CB0000598012810D0FFE70698B0F5827F08D16B
:102CC000FFE70A98806820B9FFE70598042803D039
:102CD000FFE7022002904EE1099838B1FFE708981B
:102CE00020B1FFE7BDF81E0018B9FFE701200290F0
:102CF00041E10A98406D042804D0FFE70A980521B5
:102D00004165FFE70A980021816508980A9A906357
:102D1000BDF81E000A9AD087BDF81E000A9A908757
:102D200009980A9A1063BDF81E000A9AD086BDF869
:102D30001E000A9A90860A9801640A9841640A98CB
:102D40000068006800F04000402807D0FFE70A98BC
:102D50000068016841F040010160FFE70A98C0681F
:102D6000B0F5006F72D1FFE70A98406828B1FFE71D
:102D7000BDF81C0001280ED1FFE70A980168006B1E
:102D80000088C8600A98016B023101630A98C18EFD
:102D90000139C186FFE7FFE70A98C18E012031B9EA
:102DA000FFE70A98C08F002818BF0120FFE7C0077F
:102DB00000284AD0FFE70A9800688068800700284A
:102DC00018D5FFE70A98C08EA0B1FFE70398012845
:102DD00010D1FFE70A980168006B0088C8600A9864
:102DE000016B023101630A98C18E0139C18600204E
:102DF0000390FFE70A9800688068C007A8B1FFE762
:102E00000A98C08F88B1FFE70A980068C0680A99DD
:102E1000896B08800A98816B023181630A98C18F9F
:102E20000139C18701200390FFE7FEF72DFB0499CC
:102E3000401A0E99884207D3FFE70E98013018B167
:102E4000FFE70320029096E0A6E774E00A98406846
:102E500028B1FFE7BDF81C0001280ED1FFE70A9852
:102E60000168006B007808730A98016B01310163F7
:102E70000A98C18E0139C186FFE7FFE70A98C18E23
:102E8000012031B9FFE70A98C08F002818BF012040
:102E9000FFE7C00700284DD0FFE70A980068806868
:102EA0008007002818D5FFE70A98C08EA0B1FFE779
:102EB0000398012810D1FFE70A980168006B007899
:102EC00008730A98016B013101630A98C18E0139B8
:102ED000C18600200390FFE70A9800688068C00759
:102EE000A8B1FFE70A98C08F88B1FFE70A98006889
:102EF000C0680A99896B08700A98816B01318163F7
:102F00000A98C18F0139C18701200390FFE7FEF7BE
:102F1000BBFA0499401A0E99884204D3FFE70E9831
:102F2000013018B9FFE70E9818B9FFE703200290A7
:102F300021E0A3E7FFE70A980E99049A01F07EF9D1
:102F400030B1FFE7012002900A982021816512E04C
:102F50000A98806870B9FFE7FFE7002001900A989F
:102F60000068C06801900A98006880680190019824
:102F7000FFE7FFE7FFE70A9801214165FFE70A98AD
:102F800000210165FFE702980B90FFE70B980CB05A
:102F900080BD000080B582B00190019801F028FA50
:102FA00002B080BD81B0009001B0704781B0009048
:102FB00001B0704780B582B040F20050C2F200000C
:102FC0000090009818B9FFE70120019031E00098C7
:102FD000006C38B9FFE700980021C163009800F049
:102FE0002BF8FFE7009802210164009951F8040BC7
:102FF00001F030FB009801214166FFE700980121B4
:103000004164009881640098C16400980165FFE7FD
:10301000FFE7009801214165009881650098C1652E
:1030200000980166FFE700980121016400200190EB
:10303000FFE7019802B080BD81B0009001B07047F9
:1030400083B040F20050C2F2000001900198006C81
:10305000012803D0FFE70120029056E001980221E9
:10306000016401980068C16841F00101C1600198E4
:1030700000680021C4F2010188422AD0FFE70198CC
:103080000068B0F1804F24D0FFE70198006840F25B
:103090000041C4F2000188421BD0FFE7019800689C
:1030A00040F60001C4F20001884212D0FFE7019807
:1030B000006840F60041C4F20001884209D0FFE7F1
:1030C0000198006844F20001C4F20101884212D163
:1030D000FFE701980068806800F007000090009802
:1030E000062807D0FFE701980068016841F0010158
:1030F0000160FFE706E001980068016841F0010106
:103100000160FFE700200290FFE7029803B07047DC
:1031100081B0009001B0704780B582B001900198F5
:103120000068006900F002000021B1EB500F28D0C8
:10313000FFE701980068C06800F002000021B1EBD1
:10314000500F1DD0FFE7019800686FF00201016188
:1031500001980121C161019800688069800720B150
:10316000FFE70198FFF7D4FF06E0019800F012F99D
:10317000019800F013F9FFE701980021C161FFE712
:10318000FFE701980068006900F004000021B1EB3E
:10319000900F29D0FFE701980068C06800F0040094
:1031A0000021B1EB900F1ED0FFE7019800686FF08F
:1031B0000401016101980221C161019800688069E0
:1031C00010F4407F04D0FFE70198FFF7A1FF06E06D
:1031D000019800F0DFF8019800F0E0F8FFE70198AF
:1031E0000021C161FFE7FFE701980068006900F076
:1031F00008000021B1EBD00F28D0FFE7019800684C
:10320000C06800F008000021B1EBD00F1DD0FFE72F
:10321000019800686FF00801016101980421C16103
:1032200001980068C069800720B1FFE70198FFF7A7
:103230006FFF06E0019800F0ADF8019800F0AEF8DD
:10324000FFE701980021C161FFE7FFE701980068EF
:10325000006900F010000021B1EB101F29D0FFE73A
:1032600001980068C06800F010000021B1EB101F49
:103270001ED0FFE7019800686FF01001016101980E
:103280000821C16101980068C06910F4407F04D032
:10329000FFE70198FFF73CFF06E0019800F07AF89D
:1032A000019800F07BF8FFE701980021C161FFE77A
:1032B000FFE7019800680069C00780B1FFE7019847
:1032C0000068C068C00748B1FFE7019800686FF068
:1032D00001010161019800F065F8FFE7FFE701983F
:1032E00000680069C0B20021B1EBD01F13D0FFE726
:1032F00001980068C068C0B20021B1EBD01F09D0AE
:10330000FFE7019800686FF0800101610198FFF705
:1033100049FEFFE7FFE701980068006900F0400000
:103320000021B1EB901F14D0FFE701980068C0683E
:1033300000F040000021B1EB901F09D0FFE7019899
:1033400000686FF040010161019800F03BF8FFE771
:10335000FFE701980068006900F020000021B1EB50
:10336000501F14D0FFE701980068C06800F02000EB
:103370000021B1EB501F09D0FFE7019800686FF002
:10338000200101610198FFF711FEFFE7FFE702B09E
:1033900080BD000081B0009001B0704781B0009006
:1033A00001B0704780B582B001900198006800219B
:1033B000C4F20101884203D1FFE7FEF7E7F9FFE716
:1033C00002B080BD81B0009001B0704780B588B078
:1033D000069040F2F400C2F20000C93005907F2050
:1033E000ADF812000698406C202853D1FFE70598ED
:1033F00020B1FFE7BDF8120018B9FFE701200790E0
:103400004BE0FFE70698C06B012803D1FFE70220DD
:10341000079042E006980121C163FFE7FFE70698A5
:103420000121016306980599BDF8122001F08CFC7A
:1034300000200390039850BBFFE70698006B01281B
:1034400021D1FFE7FFE7002002900698006800689E
:10345000029006980068406802900298FFE7FFE734
:10346000FFE70698006850E8030F40F01000019055
:10347000FFE701980699096841E80302002AF0D1A4
:10348000FFE7FFE702E001200390FFE7FFE7039873
:10349000079002E002200790FFE708B080BD00001F
:1034A00010B582B00190ADF8021040F2F400C2F203
:1034B000000000680199884219D1FFE7BDF80200B9
:1034C000013040F2F404C2F20004A4F848010420E0
:1034D00084F84B01B4F8480106F080FCBDF8020006
:1034E000A4F8BC0004F1980006F088FEFFE702B0E3
:1034F00010BD000081B0009001B0704780B592B05F
:103500001190119800680068109011980068C068C8
:103510000F901198006840690E9000200D900C905B
:10352000109800F00F000D900D9888B9FFE79DF8F6
:103530004000800600280AD5FFE79DF83C00800681
:10354000002804D5FFE7119801F0BCFAE1E1FFE79C
:103550000D98002800F0C280FFE79DF83800C007F2
:1035600038B9FFE7BDF83C0010F4907F00F0B6805A
:10357000FFE79DF84000C00758B1FFE79DF83D0008
:10358000C00730B1FFE71198816C41F001018164FF
:10359000FFE79DF84000400700280BD5FFE79DF8A6
:1035A0003800C00730B1FFE71198816C41F002018B
:1035B0008164FFE79DF84000800700280BD5FFE7F6
:1035C0009DF83800C00730B1FFE71198816C41F0D9
:1035D00004018164FFE79DF840000007002811D531
:1035E000FFE79DF83C008006002805D4FFE79DF822
:1035F0003800C00730B1FFE71198816C41F0080135
:103600008164FFE71198806C002866D0FFE79DF881
:103610004000800600280AD5FFE79DF83C008006A0
:10362000002804D5FFE7119801F04CFAFFE7119844
:1036300000684069C0F380100C901198806C0007FE
:10364000002804D4FFE70C9800283ED0FFE711982B
:1036500001F0C2F9119800684069400600282FD592
:10366000FFE7FFE7FFE71198006850E8050F20F03B
:1036700040000B90FFE70B981199096841E805029B
:10368000002AF0D1FFE7FFE71198806B98B1FFE7C0
:103690001198806B44F29171C0F600014165119858
:1036A000806BFDF769FA28B1FFE71198806B416DD7
:1036B0008847FFE703E01198FFF71CFFFFE703E0EF
:1036C0001198FFF717FFFFE706E01198FFF712FFC9
:1036D000119800218164FFE7FFE71AE11198006B60
:1036E000012840F0F680FFE79DF84000C006002862
:1036F00040F1EF80FFE79DF83C00C006002840F154
:10370000E880FFE7FFE700200A9011980068006852
:103710000A901198006840680A900A98FFE711988B
:1037200000684069400600287DD5FFE71198806B4E
:1037300000684068ADF82600BDF82600002871D06A
:10374000FFE7BDF826001199898D88426ADAFFE704
:10375000BDF826001199C8851198806BC069B0F535
:10376000807F57D0FFE7FFE7FFE71198006850E838
:10377000030F20F480700890FFE7089811990968FA
:1037800041E80302002AF0D1FFE7FFE7FFE7FFE788
:103790001198006850E8050F20F001000790FFE73E
:1037A00007981199096841E80502002AF0D1FFE75E
:1037B000FFE7FFE7FFE71198006850E8050F20F0EA
:1037C00040000690FFE706981199096841E8050254
:1037D000002AF0D1FFE7FFE71198202141641198FA
:1037E00000210163FFE7FFE71198006850E8030F2D
:1037F00020F010000590FFE705981199096841E84D
:103800000302002AF0D1FFE7FFE71198806BFDF774
:1038100047F9FFE71198818DC28D891A89B2FFF7A8
:103820003FFEFFE775E01198818DC08D081AADF855
:1038300012001198C08D00284AD0FFE7BDF8120091
:10384000002845D0FFE7FFE7FFE71198006850E840
:10385000030F20F490700390FFE703981199096813
:1038600041E80302002AF0D1FFE7FFE7FFE7FFE7A7
:103870001198006850E8050F20F001000290FFE762
:1038800002981199096841E80502002AF0D1FFE782
:10389000FFE7119820214164119800210163FFE79F
:1038A000FFE71198006850E8030F20F01000019026
:1038B000FFE701981199096841E80302002AF0D155
:1038C000FFE7FFE71198BDF81210FFF7E9FDFFE7EA
:1038D0001FE09DF84000000600280AD5FFE79DF88C
:1038E0003C000006002804D5FFE7119801F0B0FA6B
:1038F0000FE09DF84000400600280AD5FFE79DF83C
:103900003C004006002804D5FFE7119801F0AEF80E
:10391000FFE712B080BD000080B582B00090009833
:1039200018B9FFE70120019038E00098806908B1DC
:10393000FFE700E0FFE70098006C38B9FFE7009868
:103940000021C163009800F02DF8FFE700982421C2
:10395000016400980068C16821F40051C1600098BA
:1039600001F05CF900980068016921F4904101615F
:1039700000980068416921F02A01416100980068BF
:10398000C16841F40051C160009800218164009831
:1039900020220264009842640191FFE7019802B07E
:1039A00080BD000010B58AB00990002008900790F3
:1039B0000690059004900998006841F20001C4F255
:1039C0000101884240F08E80FFE7FFE7002003906E
:1039D00043F64400C4F20200016841F010010160A6
:1039E000006800F0100003900398FFE7FFE7002055
:1039F000029043F63000C4F20200016841F0010178
:103A00000160006800F0010002900298FFE74FF4A7
:103A1000C0600490022005900024069403200790C3
:103A2000072008900020C4F2020004A9FDF754FB0F
:103A300040F2A410C2F2000046F2B841C4F2020102
:103A400001604FF00061416040218160C4604FF42B
:103A50008061016144618461C4614FF4803101621D
:103A60004462FDF735FA10B1FFE7FDF711F8FFE703
:103A7000099840F2A411C2F2000141630998C86399
:103A8000FFE740F20820C2F2000046F24041C4F2D3
:103A9000020101604FF00061416000218160C1605E
:103AA0004FF48062026141618161C1614FF4003273
:103AB00002624162FDF70CFA10B1FFE7FCF7E8FF84
:103AC000FFE7099840F20821C2F2000181630998DA
:103AD000C863FFE725200321FDF7F6FE2520FDF74B
:103AE000EBFE94E00998006844F20041C4F2000142
:103AF000884240F08B80FFE7FFE70020019043F60B
:103B00004000C4F20200016841F400310160006825
:103B100000F4003001900198FFE7FFE700200090DB
:103B200043F63000C4F20200016841F00101016077
:103B3000006800F0010000900098FFE70C2004905E
:103B40000220059000240694032007900720089087
:103B50000020C4F2020004A9FDF7BEFA40F238408A
:103B6000C2F2000046F28801C4F2020101604FF087
:103B7000006141608460C4604FF480610161446110
:103B80008461C46104624462FDF7A2F910B1FFE7E9
:103B9000FCF77EFFFFE7099840F23841C2F20001CE
:103BA00081630998C863FFE740F29C40C2F20000BD
:103BB00046F2A001C4F2020101604FF000614160D1
:103BC000402181600021C1604FF480620261416147
:103BD0008161C1614FF4803202624162FDF778F980
:103BE00010B1FFE7FCF754FFFFE7099840F29C4152
:103BF000C2F2000141630998C863FFE7262004214F
:103C0000FDF762FE2620FDF757FEFFE7FFE70AB04B
:103C100010BD000081B0009001B0704781B00090ED
:103C200001B0704780B588B006904AF6A060C2F235
:103C300000000590ADF812100A20039000200090BB
:103C40000698006C202840F08080FFE7059820B19E
:103C5000FFE7BDF8120018B9FFE70120079077E0F1
:103C6000FFE70698C06B012803D1FFE70220079009
:103C70006EE006980121C163FFE7FFE70698002187
:103C80008164069821210164FDF7FEFB0090BDF8D8
:103C9000120006998884BDF812000699C884069817
:103CA0008068B0F5805F09D1FFE70698006928B900
:103CB000FFE7002002900598019004E0059802902B
:103CC00000200190FFE7FFE706980021C163FFE7AE
:103CD000FFE70698C08C38B3FFE70698009A039B6D
:103CE000802101F0FBF818B1FFE7032007902FE0D7
:103CF000029858B9FFE7019800886FF35F20069992
:103D00000968486001980230019008E00298007844
:103D1000069909684860029801300290FFE706980A
:103D2000C18C0139C184D4E70698009A039B4021D5
:103D300001F0D4F818B1FFE70320079008E00698D7
:103D4000202101640020079002E002200790FFE795
:103D500008B080BD80B586B004900391ADF80A200C
:103D60000498006C20286DD1FFE7039820B1FFE78D
:103D7000BDF80A0018B9FFE70120059065E0FFE7EC
:103D80000498C06B012803D1FFE7022005905CE096
:103D900004980121C163FFE7FFE7039804990862D3
:103DA000BDF80A0004998884BDF80A000499C88403
:103DB0000498002181640498212202640498406BD5
:103DC00044F64512C0F6000202640498406B44F6C3
:103DD000C112C0F6000242640498406B44F2B17212
:103DE000C0F6000202650498406B416503A801908B
:103DF00004980268406B019909680432BDF80A30E2
:103E0000FDF714F9049800686FF040010160FFE7C6
:103E100004980021C163FFE7FFE7FFE7049800680B
:103E200050E8050F40F080000090FFE700980499EB
:103E3000096841E80502002AF0D1FFE7FFE700200A
:103E4000059002E002200590FFE7059806B080BDCE
:103E500081B0009001B0704781B0009001B0704710
:103E600080B582B0FFE70020019043F63000C4F235
:103E70000200016841F480010160006800F48000E4
:103E800001900198FFE7FFE70020009043F6300023
:103E9000C4F20200016841F400110160006800F4FE
:103EA000001000900098FFE710200021FDF70CFDA6
:103EB0001020FDF701FD11200021FDF705FD112067
:103EC000FDF7FAFC38200521FDF7FEFC3820FDF750
:103ED000F3FC3A200621FDF7F7FC3A20FDF7ECFC55
:103EE0003B200721FDF7F0FC3B20FDF7E5FC4620D9
:103EF0000821FDF7E9FC4620FDF7DEFC02B080BD9D
:103F000070B58AB00020099008900790069005903F
:103F1000FFE70020049043F63000C4F2020001687D
:103F200041F004010160006800F00400049004986E
:103F3000FFE7FFE70020039043F63000C4F20200E1
:103F4000016841F080010160006800F0800003908A
:103F50000398FFE7FFE70020029043F63000C4F229
:103F60000200016841F001010160006800F00100F9
:103F700002900298FFE7FFE70020019043F630002F
:103F8000C4F20200016841F002010160006800F023
:103F9000020001900198FFE740F20044C4F20204DD
:103FA00047F202050026204647F202010022FDF7F3
:103FB00055FA0595012006900796089605AD20460E
:103FC0002946FDF789F84FF40040059006960796BC
:103FD00020462946FDF780F80AB070BD80B540F252
:103FE000B820C2F2000045F20041C4F200010160B5
:103FF00048F2A061C0F20101416000218160C1600E
:104000004FF48042026141618161C1610162FDF74B
:1040100041FA10B1FFE7FCF73BFD80BD80B540F2EF
:104020001430C2F2000043F20001C4F20101016049
:104030004FF482714160002181604FF40062C260E0
:104040000222026141614FF4007282612022C2614A
:104050000162416281620A21C162FEF7A3FA10B1D6
:10406000FFE7FCF715FD80BD80B540F2A800C2F265
:10407000000041F20001C4F2010101604FF47A3105
:10408000416000218160C16001610C224261816157
:10409000C161FFF741FC10B1FFE7FCF7F9FC80BDFF
:1040A00080B540F26C20C2F2000044F20041C4F23C
:1040B000000101604FF4E131416000218160C16085
:1040C00001610C2242618161C161FFF725FC10B1E1
:1040D000FFE7FCF7DDFC80BDFFE7FEE7FFE7FEE75B
:1040E00086B0059004910392059800F007000290B5
:1040F0000298C0F10700052802D3FFE7042003E07F
:104100000298C0F10700FFE70190029804300628EA
:1041100002D8FFE7002002E002980338FFE7009092
:1041200004980199012202FA01F10139084000992D
:104130008840039B02FA01F101391940084306B097
:104140007047000080B540F21430C2F20000FEF764
:1041500013F980BD80B582B001900198C06B0090CA
:1041600000980021C1870098C1860098FEF700F9E9
:1041700002B080BD80B584B0029001910092029897
:104180004068B0F5827F13D1FFE702988068B0F5F0
:10419000004F06D0FFE702988068B0F5806F07D126
:1041A000FFE702980068016821F040010160FFE725
:1041B00002984068B0F5827F29D1FFE702988068B5
:1041C000B0F5806F11D0FFE70298019A009B802123
:1041D00000F082F840B1FFE70298816D41F02001C4
:1041E00081650320039026E010E00298019A009B6D
:1041F000012100F071F840B1FFE70298816D41F0B4
:10420000200181650320039015E0FFE710E002988C
:10421000019A009B012100F05FF840B1FFE702988E
:10422000816D41F0200181650320039003E0FFE7E9
:1042300000200390FFE7039804B080BD80B586B0EE
:1042400004900391029240F20000C2F20000006864
:104250004AF6AB21CAF6AA21A0FB010108094DF6D6
:104260008361C4F21B31A0FB0101880C4FF47A7109
:104270004843019004984068B0F5827F11D1FFE770
:104280000498039A029B802100F026F840B1FFE7D2
:104290000498816D41F0200181650320059017E0AD
:1042A00013E0FFE7019808B9FFE70DE00198013836
:1042B0000190FFE7049800688068C0B20021B1EB6C
:1042C000D01FEFD1FFE7FFE7FFE700200590FFE7F2
:1042D000059806B080BD000010B58AB0089007911F
:1042E0000020069005920493059CFDF7CDF80499F3
:1042F000081A20440290FDF7C7F80190029840F296
:104300000001C2F200010968C1F3CB3148430390B8
:10431000FFE708980068806807990840401AB0FADB
:1043200080F04009069988425BD0FFE7059801308C
:10433000002855D0FFE7FDF7A7F80199401A029928
:10434000884204D2FFE7029800283FD1FFE708988F
:104350000068416821F0E001416008984068B0F5CC
:10436000827F13D1FFE708988068B0F5004F06D030
:10437000FFE708988068B0F5806F07D1FFE70898DD
:104380000068016821F040010160FFE70898806A39
:10439000B0F5005F0FD1FFE7FFE7089800680168FC
:1043A00021F40051016008980068016841F400514F
:1043B0000160FFE7FFE7089801214165FFE70898E2
:1043C00000210165FFE7032009900DE0039818B96B
:1043D000FFE700200290FFE7039801380390FFE712
:1043E00097E700200990FFE709980AB010BD000088
:1043F00080B582B0009000980138B0F1807F03D37F
:10440000FFE70120019019E0009801384EF21401F5
:10441000CEF2000108604FF0FF300F2100F00CFEDB
:104420004EF21800CEF20000002101604EF21000A2
:10443000CEF20000072202600191FFE702B080BDCA
:1044400080B504F01DF906F047FF04F043F980BD84
:1044500080B594B008A83021FBF7ECFF002007904E
:104460000690059004900390FFE70020029043F629
:104470004000C4F20200016841F080510160006810
:1044800000F0805002900298FFE7FFE700200190C3
:1044900047F20000C4F200000168022262F38F318B
:1044A0000160006800F4404001900198FFE701209E
:1044B00008904FF48030099002200E904FF4800154
:1044C0000F9119211091A82111911290042013909D
:1044D00008A8FDF703FC10B1FFE7FCF7D9FA0F209D
:1044E000039002200490002005904FF48051069123
:1044F000079003A8FDF708FA10B1FFE7FCF7C8FA28
:1045000014B080BD85B00020049003900221029178
:104510000190009143F60800C4F20200006800F028
:104520000C000490049830B1FFE704280DD0FFE799
:10453000082814D059E040F20000C2F2000042F214
:104540000041C0F2F401016059E040F20000C2F203
:10455000000047F64001C0F27D1101604FE043F6D4
:104560000400C4F202000168C1F3805101910068A7
:1045700000F03F000090019888B1FFE7009847F6EF
:104580004001C0F27D11B1FBF0F043F60401C4F22A
:1045900002010968C1F388114843039010E00098B4
:1045A00042F20041C0F2F401B1FBF0F043F6040125
:1045B000C4F202010968C1F3881148430390FFE780
:1045C00043F60400C4F20200006800F44030022107
:1045D00001EBD030029003980299B0FBF1F040F269
:1045E0000001C2F20001086009E040F20000C2F2DE
:1045F000000042F20041C0F2F4010160FFE743F61F
:104600000800C4F202000068C0B200094CF6844100
:10461000C0F60001085C0490049840F20001C2F268
:1046200000010A6822FA00F0086005B07047000037
:104630004EF68850CEF20000016841F4700101602E
:104640007047000080B540F20050C2F20000FEF753
:1046500063FD80BD83B002900191029800680090D4
:1046600002980021C4F2010188421DD0FFE70298A0
:10467000B0F1804F18D0FFE7029840F20041C4F239
:104680000001884210D0FFE7029840F60001C4F212
:104690000001884208D0FFE7029840F60041C4F2CA
:1046A000000188420AD1FFE7009820F070000090D6
:1046B00001984068009908430090FFE702980021A4
:1046C000C4F20101884235D0FFE70298B0F1804F73
:1046D00030D0FFE7029840F20041C4F20001884266
:1046E00028D0FFE7029840F60001C4F2000188429A
:1046F00020D0FFE7029840F60041C4F20001884252
:1047000018D0FFE7029844F20001C4F20101884288
:1047100010D0FFE7029844F20041C4F20101884240
:1047200008D0FFE7029844F60001C4F20101884274
:104730000AD1FFE7009820F4407000900198C0680B
:10474000009908430090FFE7009820F0800001994D
:1047500049690843009000980299086001988068B0
:104760000299C86201980068029988620298002143
:10477000C4F20101884205D1FFE70198006902995E
:104780000863FFE702980121416103B07047000010
:1047900080B582B001900198C06B00900098002114
:1047A000C1850098C1840098FEF7A4FE02B080BDC8
:1047B00080B584B00390002002900398C06B0190F4
:1047C000019800684069C0B2C00902900198006C6D
:1047D00021280AD1FFE7029838B1FFE701980021AC
:1047E000C184019800F054F9FFE70198006840691E
:1047F000C0F3801002900198406C22280AD1FFE794
:10480000029838B1FFE701980021C185019800F0B6
:10481000E3F8FFE70198816C41F010018164019891
:10482000FEF768FE04B080BD80B586B0059005989F
:10483000C06B0490059800680068C005002859D432
:10484000FFE704980021C185FFE7FFE704980068AF
:1048500050E8030F20F480700390FFE70398049959
:10486000096841E80302002AF0D1FFE7FFE7FFE70C
:10487000FFE70498006850E8050F20F0010002905F
:10488000FFE702980499096841E80502002AF0D17F
:10489000FFE7FFE7FFE7FFE70498006850E8050F30
:1048A00020F040000190FFE701980499096841E871
:1048B0000502002AF0D1FFE7FFE7049820214164B8
:1048C0000498006B012814D1FFE7FFE7FFE7049885
:1048D000006850E8030F20F010000090FFE70098F8
:1048E0000499096841E80302002AF0D1FFE7FFE7D5
:1048F000FFE7FFE70498006B012805D1FFE7049864
:10490000818DFEF7CDFD03E00498FFF783F9FFE703
:1049100006B080BD80B582B001900198C06B009058
:104920000098006B012806D1FFE70098818D4908A7
:10493000FEF7B6FD03E00098FFF770F9FFE702B05D
:1049400080BD000080B584B003900398C06B0290D6
:10495000039800680068C00500282AD4FFE7029881
:104960000021C184FFE7FFE70298006850E8050FC7
:1049700020F080000190FFE701980299096841E862
:104980000502002AF0D1FFE7FFE7FFE7FFE7029803
:10499000006850E8030F40F040000090FFE70098E7
:1049A0000299096841E80302002AF0D1FFE7FFE716
:1049B00003E00298FFF74CFAFFE704B080BD000067
:1049C00080B582B001900198C06B00900098FFF70D
:1049D00043FA02B080BD000084B00390FFE7FFE718
:1049E0000398006850E8030F20F490700290FFE7EE
:1049F00002980399096841E80302002AF0D1FFE711
:104A0000FFE7FFE7FFE70398006850E8050F20F095
:104A100001000190FFE701980399096841E8050248
:104A2000002AF0D1FFE7FFE70398006B012814D1BB
:104A3000FFE7FFE7FFE70398006850E8030F20F067
:104A400010000090FFE700980399096841E803020D
:104A5000002AF0D1FFE7FFE7FFE703982021416438
:104A600003980021016304B07047000080B582B054
:104A7000019001980068C16821F04001C16001986F
:104A8000202101640198FFF7E3F902B080BD000026
:104A900082B00190FFE7FFE70198006850E8030F3C
:104AA00020F0C0000090FFE700980199096841E8F4
:104AB0000302002AF0D1FFE7FFE7019820210164FB
:104AC00002B0704780B586B004900498406C2228EC
:104AD00040F09E80FFE704988068B0F5805F15D1B4
:104AE000FFE70498006988B9FFE700200390049865
:104AF000806A02900498006840686FF35F20029912
:104B000008800498816A0231816225E00498806AF5
:104B100003900020029004988068B0F5805F08D070
:104B2000FFE70498806850B9FFE70498006930B93E
:104B3000FFE70498006840680399087007E004984C
:104B40000068406800F07F0003990870FFE7049850
:104B5000816A01318162FFE70498C18D0139C18505
:104B60000804002851D1FFE704980068C16821F0CB
:104B70002001C16004980068C16821F48071C1609F
:104B800004980068416921F00101416104982021E5
:104B900041640498006B012830D1FFE7049800219C
:104BA0000163FFE7FFE70498006850E8030F20F077
:104BB00010000190FFE701980499096841E8030299
:104BC000002AF0D1FFE7FFE7049800680068C006FC
:104BD00000280ED5FFE7FFE700200090049800684A
:104BE0000068009004980068406800900098FFE713
:104BF000FFE70498818DFEF753FC03E00498FFF76C
:104C000009F8FFE70020059005E00020059002E08C
:104C100002200590FFE706B080BD0000B0B584B06B
:104C2000039003980068006920F4405003990A68D3
:104C3000C968084310610398816802694369C069C3
:104C4000114319430843029003980068C06849F271
:104C50000C6188430299084303990968C860039866
:104C60000068406920F4407003990A688969084324
:104C700050610398006841F20001C4F201018842CA
:104C800009D0FFE70398006841F20041C4F2010136
:104C9000884204D1FFE7FCF79FFF019003E0FCF797
:104CA00089FF0190FFE70398C069B0F5004F25D157
:104CB000FFE701981921A0FB0101039A15685368C9
:104CC0005A00DB0FFBF76CFB48F21F51C5F2EB11EA
:104CD000A0FB01235A091301642402FB14003222B1
:104CE00002EBC000A0FB0101F82000EA511003EB29
:104CF0004000C1F342110844A86023E00198192143
:104D0000A0FB0101039A146853689A009B0FFBF7FC
:104D100047FB48F21F51C5F2EB11A0FB01235A09D2
:104D2000642302FB1300322303EB0010A0FB0101FC
:104D3000F02000EA511000EB0210C1F343110844C7
:104D4000A060FFE704B0B0BD80B588B007900691C1
:104D5000ADF81620069807998862BDF816000799E5
:104D60008885079800218164079822224264079869
:104D7000806B44F62902C0F6000202640798806B3B
:104D800044F61512C0F6000242640798806B44F2A4
:104D9000B172C0F6000202650798806B416506A8F3
:104DA000049007980168806B0431049A1268BDF87A
:104DB0001630FCF73BF9FFE70020039007980068E6
:104DC0000068039007980068406803900398FFE725
:104DD000FFE707980021C163FFE7FFE7FFE70798B8
:104DE000006850E8030F40F480700290FFE70298DB
:104DF0000799096841E80302002AF0D1FFE7FFE7BD
:104E0000FFE7FFE70798006850E8050F40F0010052
:104E10000190FFE701980799096841E80502002A17
:104E2000F0D1FFE7FFE7FFE7FFE70798006850E8EA
:104E3000050F40F040000090FFE7009807990968CF
:104E400041E80502002AF0D1FFE7FFE708B080BD86
:104E500083B001900198006C212839D1FFE70198B7
:104E60008068B0F5805F13D1FFE70198006978B9D9
:104E7000FFE70198006A0090009800886FF35F20B8
:104E80000199096848600198016A0231016208E0ED
:104E90000198016A4A1C0262087801990968486011
:104EA000FFE70198C18C0139C184080468B9FFE7A4
:104EB00001980068C16821F08001C1600198006814
:104EC000C16841F04001C160FFE70020029002E0AC
:104ED00002200290FFE703B07047000080B588B061
:104EE000069005910020049003920293FFE7069834
:104EF0000068006805990840401AB0FA80F040093F
:104F00000499884245D1FFE70298013000283FD03C
:104F1000FFE7029840B1FFE7FCF7B6FA0399401AA1
:104F20000299884233D9FFE7FFE7FFE70698006858
:104F300050E8030F20F4D0700190FFE70198069924
:104F4000096841E80302002AF0D1FFE7FFE7FFE725
:104F5000FFE70698006850E8050F20F00100009078
:104F6000FFE700980699096841E80502002AF0D198
:104F7000FFE7FFE706982021016406984164FFE7F8
:104F800006980021C163FFE70320079004E0FFE7D4
:104F9000ADE700200790FFE7079808B080BD00004C
:104FA00080B503F06DFB40F2F400C2F2000000682F
:104FB0000068006800F020000021B1EB501F10D005
:104FC000FFE740F2F400C2F20000012180F84B112B
:104FD00001680968496880F8C8100068FEF7F6F9AA
:104FE000FFE740F2F400C2F200000068FEF786FA24
:104FF00003F070FB80BD0000FFE7FEE781B000908A
:10500000009800280ED4FFE7009800F01F0101224D
:1050100002FA01F140094EF20012CEF2000242F80B
:105020002010FFE701B070474EF60C50CEF20000A2
:105030000068C0F30220704782B00190009101988F
:10504000002809D4FFE70098000101994EF20042C0
:10505000CEF2000288540AE000980001019901F0A4
:105060000F014EF61452CEF200028854FFE702B050
:105070007047000083B00290029800F00700009093
:105080004EF60C50CEF200000168019101994FF6E6
:10509000FF02114001910199009A41EA0221002288
:1050A000C0F2FA52114301910199016003B07047B7
:1050B00080B501F02BFB80BD82B00090009818B93C
:1050C000FFE70020019033E09DF8000050B1FFE7BA
:1050D0009DF800004CF6CA21C0F60001085C0130C2
:1050E000019025E09DF8010050B1FFE79DF8010017
:1050F0004CF6CA21C0F60001085C0930019017E0A7
:105100009DF8020050B1FFE79DF802004CF6CA215D
:10511000C0F60001085C1130019009E09DF8030021
:105120004CF6CA21C0F60001085C19300190FFE777
:10513000019802B07047000081B04AF67810C2F2C0
:1051400000000090009800680099401A18BF0120E4
:1051500001B0704780B590B00E900D910C92002078
:105160000A900E9868B9FFE74DF66650C0F6000049
:105170004DF65C51C0F6000140F2371202F0DCFC43
:10518000FFE70C9868B9FFE74EF29600C0F6000002
:105190004DF65C51C0F600014FF49C7202F0CCFC5D
:1051A000FFE7FFE70E980A99415C002020290ED006
:1051B000FFE70E980A99415C0020092907D0FFE714
:1051C0000A990D9A0020914238BF0120FFE7C007DD
:1051D00020B1FFE70A9801300A90E3E70A9820B966
:1051E000FFE74FF0FF300F902AE00E980A9902F087
:1051F0002BF90990099820B9FFE74FF0FF300F9085
:105200001EE00020089007900690059004900390FF
:10521000029001900E980D9901AA02F093F90B905B
:105220000B9820B9FFE74FF0FF300F9008E0099A84
:105230000B9801A990470C99086000200F90FFE798
:105240000F9810B080BD000080B582B00190019829
:1052500060B9FFE74DF69030C0F600004DF6EF71F3
:10526000C0F60001502202F067FCFFE70198006BD6
:10527000007823280ED1FFE70198416A006B814234
:1052800008D9FFE70198416A026B406B10448142E4
:1052900012D9FFE701994DF28160C0F6000003F0DA
:1052A0008FFA01F035FEFAF781FF0090FFE70098D2
:1052B00008B1FFE7FBE70FE00198416A006B20307F
:1052C000814208D8FFE701994DF27820C0F600002E
:1052D00003F076FAFFE7FFE702B080BD80B586B045
:1052E000DDF82CC0DDF828C0DDF824E0DDF820E092
:1052F00005900491039202938DF807C005981C3025
:1053000003F090FA03980599886202980599C8629B
:105310000898059908630998059948630599086BE9
:105320004A6B232104F04EF8059A906AD16A136BF8
:10533000526B1A44043A03F05FF9059948629DF8EC
:10534000070020280CDBFFE74DF68C40C0F600007C
:105350004EF29711C0F60001A72202F0EDFBFFE725
:105360009DF80700059981F83E009DF80700059912
:1053700081F83D000598002101640B98059AD064DE
:105380000B98059A106505988163059880F83C1084
:105390000598C0F888100598C0F88C10059901F19F
:1053A00054000A4606F004F9FFE7FFE7FFE706B0FE
:1053B00080BD000080B586B0DDF820C00590049166
:1053C000039202938DF807C09DF807000599487471
:1053D0000598417C01F0FE014174049805994862EA
:1053E0000398059988620598002101630298059A3F
:1053F000D0620091FFE7009800280CDCFFE70598D9
:10540000009900EBC1001C3003F014FAFFE700988C
:1054100001300090EFE706B080BD000080B582B09B
:10542000019000200090FFE7009800280CDCFFE7C7
:105430000198009900EBC1001C3003F0FFFAFFE770
:10544000009801300090EFE702B080BD80B582B0D7
:105450000190FAF7ABFE00900198D0F8880028B1CF
:10546000FFE70198D0F888108847FFE70098FAF71F
:10547000A1FE02B080BD000010B582B006F020F899
:105480004AF63041C2F20001086002200190042077
:1054900000904DF64650C0F6000045F2D541C0F6EA
:1054A000000100224FF4006305F078FA4AF6344414
:1054B000C2F20004206007F00BFA206840B1FFE759
:1054C0004AF63440C2F20000006805F073FDFFE7C1
:1054D00002B010BD84B0039000208DF803008DF859
:1054E00002008DF801008DF800000020C4F20200D7
:1054F00038210022FBF7B2FFFFE74AF69460C2F2C0
:105500000000006802A902F0FBFB0190019800284E
:1055100057D1FFE79DF8030001308DF803009DF897
:105520000300012803D0FFE7022822D048E040F220
:10553000F404C2F20004D4F854214DF23F01C0F645
:10554000000120469047D4F854214DF20C01C0F6DA
:105550000001204690474AF63840C2F20000006839
:1055600005F028FD4AF62C40C2F20000012101702E
:1055700026E04AF62C40C2F200000078012804D14F
:10558000FFE701208DF8030019E040F2F404C2F2B5
:105590000004D4F854214DF22501C0F60001204644
:1055A0009047D4F854214DF25801C0F6000120462E
:1055B000904702F08FFA00208DF80300FFE7FFE725
:1055C000FFE7142005F048FC97E7000010B54DF206
:1055D0003D30C0F6000003F0F3F84EF62954CEF249
:1055E000000421784DF67C00C0F6000003F0E8F8D6
:1055F0002078C00738B1FFE74DF66700C0F600001D
:1056000003F0DEF8FFE74EF62950CEF200000078F6
:105610008007002807D5FFE74DF65C00C0F60000C4
:1056200003F0CEF8FFE74EF62950CEF200000078E6
:105630004007002807D5FFE74DF65A00C0F60000E6
:1056400003F0BEF8FFE74EF62950CEF200000078D6
:105650000007002807D5FFE74DF65000C0F6000010
:1056600003F0AEF8FFE74EF62950CEF200000078C6
:10567000C006002807D5FFE74DF65200C0F600002F
:1056800003F09EF8FFE74EF62950CEF200000078B6
:10569000000600280CD5FFE74EF63850CEF2000089
:1056A00001684DF28230C0F6000003F089F806E090
:1056B0004DF2E870C0F6000003F082F8FFE710BD7D
:1056C00080B582B00190009101F05CFA002002B038
:1056D00080BD000080B582B00190009101F018FCFF
:1056E000002002B080BD000080B582B0019040F281
:1056F0000000C2F2000000684DF68361C4F21B3165
:10570000A0FB0101880C01994843019006F01CFFA1
:10571000FFE706F053FF0199884201DAFFE7F8E757
:1057200002B080BD82B001900198808C000B8DF892
:1057300003000198808CADF800009DF803000F284D
:1057400014DCFFE79DF8030000280FD4FFE7BDF845
:1057500000006FF31F30ADF80000BDF800000199A4
:10576000896A9DF8032021F81200FFE702B0704714
:1057700080B582B040F27400C2F20000019001983E
:10578000C07C102818D1FFE70198807C0A2806D039
:10579000FFE70B2807D0FFE70C2808D00BE00198A3
:1057A00000F094F807E0019800F0E0F803E00198B9
:1057B00000F02EF8FFE728E00198C07C122805D001
:1057C000FFE70198C07C13281ED1FFE7019800F085
:1057D000F7F9019800F02AF90198807C0A2806D090
:1057E000FFE70B2807D0FFE70C2808D00BE0019853
:1057F00000F06CF807E0019800F0B8F803E00198B9
:1058000000F006F8FFE7FFE7FFE702B080BD000009
:1058100080B584B003900399C869098C0122FBF715
:105820001DFE0398408C0021B1EBD03F08D0FFE76C
:10583000FFE70398418C6FF3DF314184FFE7FFE717
:105840000020ADF80A008DF80900FFE79DF8090077
:105850000399097DC1F383010131884234DAFFE7FE
:105860000399C869098C0022FBF7F8FD0520FFF7B2
:105870003BFF039A906902F1220124324FF47A73BC
:1058800000930123FDF7ECF9FFE7039880690068B6
:105890008068C009C00708B1FFE7F6E70520FFF7F9
:1058A00023FF0399C869098C0122FBF7D7FD0398F0
:1058B000FFF738FF6420FFF717FFFFE79DF80900A7
:1058C00001308DF80900C1E704B080BD80B582B019
:1058D00001900199C869098C0122FBF7BFFD1420D2
:1058E000FFF702FF0199C869098C0022FBF7B6FD9A
:1058F000019988692231FDF77FF8FFE701988069F7
:1059000000688068C009C00708B1FFE7F6E7052016
:10591000FFF7EAFE0199C869098C0122FBF79EFD99
:105920001420FFF7E1FE0199C869098C0022FBF7FA
:1059300095FD019988692431FCF758FFFFE701982C
:10594000806900688068C009C00708B1FFE7F6E712
:105950000520FFF7C9FE0199C869098C0122FBF7F0
:105960007DFD0198FFF7DEFE02B080BD80B584B0FA
:105970000390039890F82600032854D1FFE703987A
:10598000408C0021B1EBD03F08D0FFE7FFE7039840
:10599000418C6FF3DF314184FFE7FFE70399C8696A
:1059A000098C0122FBF75AFD00208DF80B00FFE760
:1059B0009DF80B00039991F82C1088422EDAFFE72E
:1059C0000399C869098C0022FBF748FD039A906986
:1059D00002F1220124324FF47A7300930123FDF780
:1059E0003FF9FFE70398806900688068C009C00735
:1059F00008B1FFE7F6E70399C869098C0122FBF7B4
:105A00002DFD0398FFF78EFEC820FFF76DFEFFE720
:105A10009DF80B0001308DF80B00C9E703980321B6
:105A200080F82610FFE704B080BD000082B001902E
:105A30000020ADF80200FFE70198407DC008C007D4
:105A400038B9FFE7BDF8020020F00100ADF8020010
:105A50000DE00198407DC008C00738B1FFE7BDF8F0
:105A6000020040F00100ADF80200FFE7FFE7FFE7AA
:105A7000FFE70198407D8008C00738B9FFE7BDF80F
:105A8000020020F00200ADF802000DE00198407D18
:105A90008008C00738B1FFE7BDF8020040F00200FF
:105AA000ADF80200FFE7FFE7FFE7FFE70198407D61
:105AB0004008C00738B9FFE7BDF8020020F0040035
:105AC000ADF802000DE00198407D4008C00738B1F4
:105AD000FFE7BDF8020040F00400ADF80200FFE768
